:0200000490006A
:1000000078510024AD020090073C0090B53200907A
:10001000053C009039040090D96E0090000000006B
:10002000000000000000000000000000915300905C
:10003000B904009000000000833D009093530090AD
:10004000C7020090C7020090C7020090C70200904C
:10005000C7020090C7020090C7020090C70200903C
:10006000C7020090C7020090C7020090C70200902C
:10007000C7020090C7020090C7020090C70200901C
:10008000C7020090C7020090C7020090C70200900C
:10009000C7020090C7020090C7020090C7020090FC
:1000A000C7020090C7020090C7020090C7020090EC
:1000B000C7020090C7020090C7020090C7020090DC
:1000C000C7020090C7020090C7020090C7020090CC
:1000D000C7020090C7020090C7020090C7020090BC
:1000E000C7020090C702009000000000C702009005
:1000F000C7020090C7020090C7020090C70200909C
:10010000C7020090C7020090C7020090C70200908B
:10011000C7020090C7020090C7020090C70200907B
:10012000C7020090C7020090C7020090C70200906B
:10013000C7020090C7020090C7020090C70200905B
:1001400000000000000000000000000000000000AF
:10015000C7020090C7020090C7020090C70200903B
:10016000C7020090C7020090C7020090C70200902B
:10017000C7020090C7020090C7020090C70200901B
:10018000C7020090C7020090C7020090C70200900B
:10019000C7020090C7020090C7020090C7020090FB
:1001A000C7020090C7020090C7020090C7020090EB
:1001B000C7020090C7020090C7020090C7020090DB
:1001C000C7020090C7020090C7020090C7020090CB
:1001D000C7020090093C0090C7020090C70200903F
:1001E000C7020090C7020090C7020090C7020090AB
:1001F000C7020090C7020090C7020090C70200909B
:10020000C7020090C7020090C7020090C70200908A
:10021000C7020090C7020090C7020090C70200907A
:10022000C7020090C7020090C702009000000000C3
:10023000C7020090C702009000000000C7020090B3
:10024000C7020090C7020090C7020090C70200904A
:10025000C7020090C7020090C7020090C70200903A
:10026000C7020090C7020090C7020090C70200902A
:10027000C7020090C7020090C70200900000000073
:10028000C7020090C7020090C70200900000000063
:1002900000000000C7020090DFF80CD000F070F8FA
:1002A00000480047017E00907851002406488047AE
:1002B00006480047FEE7FEE7FEE7FEE7FEE7FEE74B
:1002C000FEE7FEE7FEE7FEE7895400909902009002
:1002D00040EA01039B0703D009E008C9121F08C0C8
:1002E000042AFAD203E011F8013B00F8013B521E48
:1002F000F9D27047D2B201E000F8012B491EFBD2BF
:1003000070470022F6E710B513460A460446194620
:10031000FFF7F0FF204610BD2DE9F05F05460020F5
:1003200092469B4688460646814640241BE0284666
:1003300041464746224600F044F853465A46C01A02
:10034000914110D311461846224600F02BF82D1A81
:1003500067EB01084F4622460120002100F022F8F9
:1003600017EB00094E41201EA4F10104DFDC4846D2
:1003700031462A464346BDE8F09F00207047000002
:10038000064C074D06E0E06840F0010394E80700E2
:1003900098471034AC42F6D3FFF782FF688B009089
:1003A000888B0090202A04DB203A00FA02F100201A
:1003B00070479140C2F1200320FA03F319439040A3
:1003C0007047202A04DB203A21FA02F0002170470E
:1003D00021FA02F3D040C2F12002914008431946AD
:1003E000704770B58C1810F8015B15F0070301D148
:1003F00010F8013B2A1106D110F8012B03E010F888
:10040000016B01F8016B5B1EF9D12B0705D40023AA
:10041000521E0DD401F8013BFAE710F8013BCB1A4C
:10042000921C03E013F8015B01F8015B521EF9D541
:10043000A142D8D3002070BDFEE70000F0B5BFF3A5
:100440004F8FBFF36F8F1A4900200860BFF34F8FA3
:10045000BFF36F8F174A116841F400311160BFF389
:100460004F8FBFF36F8F134970310860BFF34F8F09
:10047000081F43F6FF7400680D4D1035C0F34E3170
:10048000C0F3C90304EA4116184600BF46EA807764
:100490002F60401EFAD2491EF4D2BFF34F8F10686E
:1004A00040F480301060BFF34F8FBFF36F8FF0BD0B
:1004B00050EF00E014ED00E07047704770B504465F
:1004C00000F03AF90546601C02D004480078044464
:1004D00000F032F9401BA042FAD370BD7400002432
:1004E0002DE9FC4F01257E4C00234FF0030A4FF00D
:1004F000B04E4FF00F0BEBE005FA03F637403A0031
:1005000077D04F68012F05D0022F03D0112F01D0D3
:10051000122F1AD187684FEA4308D1F80CC00AFAA3
:1005200008F927EA09070CFA08FC4CEA070CC0F89E
:1005300008C0476891F804C0B743CCF3001C0CFA1C
:1005400003FC4CEA070CC0F804C0C6684FEA430C31
:10055000D1F80880E1460AFA0CF7BE43019708FA81
:1005600009F848EA0608C0F80C804E68022E01D04F
:10057000122E12D1DE084FEA437C00EB860600966D
:100580000F69366A4FEADC6C0BFA0CF807FA0CF7C5
:1005900026EA08063743009E37620E790768DDF8C1
:1005A00004C006F0030606FA09F627EA0C073E43E4
:1005B00006604E68F6001CD54A4E376847F00207C1
:1005C000376036689F0706F00206009623F00306A0
:1005D00006F1B046B1463F0FD6F80864DFF808814F
:1005E0000BFA07FC404526EA0C0603D14FF0000C3D
:1005F00041E06CE0DFF8F4C0604502D14FF0010C3F
:1006000039E0DFF8ECC0604502D14FF0020C32E077
:10061000DFF8E0C0604502D14FF0030C2BE0DFF8BB
:10062000D8C0604502D14FF0040C24E0DFF8CCC004
:10063000604502D14FF0050C1DE0DFF8C4C06045F5
:1006400002D14FF0060C16E0DFF8B8C0604502D1C9
:100650004FF0070C0FE0DFF8B0C0604502D14FF05B
:10066000080C08E0DFF8A4C0604502D14FF0090C87
:1006700001E04FF00A0C0CFA07FC4CEA060CC9F832
:1006800008C426684F6826EA0206FF0300D5164311
:10069000266066684F6826EA0206BF0300D5164347
:1006A0006660D1F804C07646DEF800705FEACC2CB4
:1006B00027EA020700D517433760D1F804C07768EE
:1006C0005FEA8C2C27EA020700D5174377605B1C92
:1006D0000A681746DA407FF40FAFBDE8FC8F0000D0
:1006E00080000058F44402580000025800040258E8
:1006F00000080258000C025800100258001402585A
:1007000000180258001C0258002002580024025809
:100710000AB1816170470904FBE7000002480068E4
:10072000C0F30B00704700000010005C0148006837
:10073000000C70470010005C0148806870470000A2
:100740007400002402488168027811448160704777
:1007500074000024032010B500F0D4F801F09AFBD7
:100760000F4A104914681368C4F3032203F00F03FF
:100770008A5CC95C02F01F0201F01F01D0400A4AE6
:1007800020FA01F1116009490860002000F010F81A
:1007900008B1012010BD00F079F8002010BD000064
:1007A000184402589C7F009084000024800000249C
:1007B00070B50D4D04462878A0B14FF47A71B1FBA5
:1007C000F0F00A490968B1FBF0F002F0BAFB48B951
:1007D000102C07D200222146501E00F073F8002092
:1007E0006C6070BD012070BD740000248000002486
:1007F000F0B5154C4378211D0A1D23600378F3B131
:1008000043680B60057BC67A817A437B2D07847B26
:1008100045EA0665C77B90F809C0067A90F800E0C3
:1008200045EAC14040EA834040EA444040EA07408C
:1008300040EA0C2040EA460040EA0E0001E00020B9
:1008400008601060F0BD000098ED00E0BFF35F8F1E
:10085000044800210368034A23F4803303607032A4
:100860001160704724ED00E0074A40F0010006499E
:1008700070321060086840F480300860BFF34F8F1A
:10088000BFF36F8F7047000024ED00E0054808B506
:10089000016841F002010160006800F00200009070
:1008A00008BD0000F4440258002809DB410900F0AB
:1008B0001F028900012001F1E0219040C1F80001F0
:1008C000704700000E4BF0B41B680D46C3F30223C3
:1008D000C3F10706042E00D90426191D072901D2E9
:1008E000002300E0DB1E012404FA06F19C40491EAF
:1008F0002940641E994014402143F0BC06F0BDBC61
:100900000CED00E0064900F0070210B54FF6FF04B9
:100910000868044B204040EA02201843086010BDDC
:100920000CED00E00000FA0501680123C0F8FC337B
:10093000002280F8F4238869044A40F0006088614E
:10094000486D104348650020704700000300001008
:1009500070470068416200207047F0B503685D6A27
:1009600039B19F6A4C1E00204FF4827605EB174583
:100970000BE045EA0240986210E0471C06EB80005D
:1009800053F800C0F8B205EB1C45A042F5D34FF474
:10099000807000EB810045EA02421A500020F0BD51
:1009A000D0F8040405F0DEB9C1EBC10200EB82020D
:1009B000D0F80404926C05F033B9C1EBC10200EB2E
:1009C0008202D0F80404D2F8082205F08AB9D0F8DF
:1009D000040405F0C9B901F00F020B0670B5C2EBB3
:1009E000C20104464FF001004FF0000504EB810105
:1009F00003D581F83D003C3103E081F8FD5101F55C
:100A0000FE710A7094F8BC23012A08D084F8BC0354
:100A1000206805F01FFE002084F8BC5370BD022042
:100A200070BD70B54268044601F00F00904201D9D4
:100A3000012070BD01F00F024FF000050B06C2EB64
:100A4000C2014FF0010204EB810103D581F83D2082
:100A50003C3103E081F8FD5101F5FE718D700870A5
:100A600094F8BC03012808D084F8BC23206805F062
:100A7000C5FF002084F8BC5370BD022070BD10B5C6
:100A8000044690F8BC0301280AD0012084F8BC0376
:100A900020680A0606D501F00F0106F011F903E0FF
:100AA000022010BD06F0FCF8002084F8BC0310BD45
:100AB00001F00F01C1EBC10100EB8100D0F814027D
:100AC00070472DE9F04101F00F0604460D064FF086
:100AD0000100C6EBC6014FF0000504EB810103D510
:100AE00081F83D003C3103E081F8FD5101F5FE71D4
:100AF0004F788A60CB700E7007B1CE80022B00D188
:100B00000D7194F8BC23012A09D084F8BC03206835
:100B100005F0FAFC284684F8BC53BDE8F0810220B9
:100B2000FBE770B501F00F050C460026C5EBC501CB
:100B300000EB8101C1F80822C1E9843681F8FD612A
:100B400081F8FC5101F5FE710369012B00D10A61A6
:100B50002207027C006803D005F0A8FF002070BDCA
:100B600005F092FEFAE770B50D464168044605F0BF
:100B70000F00884201D9012070BD29064FF0000600
:100B80004FF0010207D5C0EBC00104EB810181F8F1
:100B90003D203C3107E0C5EBC50104EB810181F844
:100BA000FD6101F5FE718A70087094F8BC0301289C
:100BB00007D084F8BC23206805F04CFF280702D03A
:100BC00007E0022070BD217C04F57172206805F0F9
:100BD000E9FE002084F8BC6370BD2DE9F04101F00E
:100BE0000F050C460026C5EBC501012700EB81016E
:100BF0008A64C1E9143681F83D7001F83C5F0369ED
:100C0000012B00D10A612207027C006804D005F0A4
:100C10004DFF0020BDE8F08105F036FEF9E7000049
:100C20002DE9FC5F05680446284606F068F80028B0
:100C30007ED1206806F08FF8002879D0206806F071
:100C40008AF8800704D52068416901F002014161FA
:100C5000206806F080F8C10604F57170009034D564
:100C60002068816921F0100181612F6A07F00F016E
:100C7000C7F34340C1EBC101022804EB810606F52E
:100C8000FE7602D0062811D01AE047F6F07007422F
:100C900016D0C7F30A12F1681746284606F05FF827
:100CA000F168B0693944F160384408E000990822DD
:100CB000284606F054F8B069C7F30A110844B06139
:100CC0002068816941F010018161206806F043F8D5
:100CD00000034FF001094FF0080B5BD52068002698
:100CE00006F018F8DFF8A8A3074651E0F8074DD042
:100CF0002068F1B206F027F88046C00707D005EB60
:100D00004611C1F8089B3146204602F083FF5FEA96
:100D1000087022D505EB4611C1F808BB2068016CAC
:100D200000EB461001915145D0F8081B07D900E0AF
:100D3000ABE1090403D54FF40041C0F8081B20467D
:100D400000F098FA0198504507D92069012804D18C
:100D500020680121009A05F025FE5FEAC86004D5ED
:100D600005EB46111020C1F8080B5FEA886004D536
:100D700005EB46102021C0F8081B5FEA884005D526
:100D800005EB46114FF40050C1F8080B7F08761CA4
:100D9000002FABD1206805F0DEFF40034FF0000AC2
:100DA0005CD5206805F0AFFF0026074654E0F80741
:100DB00050D02068F1B205F0B4FF8046C00723D0C0
:100DC000D5F8342806F00F0C05EB461309FA0CF0A1
:100DD0008243C5F83428C3F80899206901280FD147
:100DE000C6EBC60004EB8000D0E911121144816407
:100DF00036B9206D20B920680121009A05F0D2FD96
:100E00002046F1B2FFF7D0FD5FEA087003D505EB8D
:100E10004611C1F808B95FEAC86004D505EB461170
:100E20001020C1F808095FEA486004D505EB4611B7
:100E30004020C1F808095FEA887004D505EB461127
:100E40000220C1F808095FEA086003D53146204650
:100E500002F046FF7F08761C002FA8D1206805F01D
:100E60007AFF002811DAD5F8040820F00100C5F84F
:100E7000040894F8F403012839D0204600F0DEF984
:100E80002068416901F000414161206805F063FF7D
:100E900000050BD5D5F80808C00702D0204600F0A1
:100EA00011FA2068416901F400614161206805F090
:100EB00052FF00010AD52068416901F000614161DB
:100EC00094F8F403D0B1204600F0FCF9206805F056
:100ED00042FFC00476D5D5F8040820F00100C5F81B
:100EE00004082068102105F0EBFE002135E0002108
:100EF000204684F8F4A3FFF72BFDC1E784F8F493B0
:100F00002068406D0121C0F38300C4F8F803204637
:100F1000FFF71EFDDAE700BF05EB41104FF67F3209
:100F2000C0F80829D0F8003923F40013C0F80039BC
:100F3000D0F8003943F00063C0F80039C0F8082B3E
:100F4000D0F8002B22F40012C0F8002BD0F8002BB0
:100F500042F00062C0F8002B491C60688842DBD870
:100F6000D5F81C0840F00110C5F81C08206B60B1D2
:100F7000D5F8840840F00B00C5F88408D5F844087B
:100F800040F00B00C5F844080CE0D5F8140842F214
:100F90002B010843C5F81408D5F8100840F00B00E1
:100FA000C5F81008D5F8000820F4FE60C5F8000860
:100FB000217C2068009A05F0F5FC2068416901F465
:100FC00080514161206805F0C6FE800417D5206875
:100FD00005F0DAFA206805F085FEE06000F038FFE1
:100FE0000146207B2368C2B2184605F0EFFE20467A
:100FF00000F00EF92068416901F400514161206858
:1010000005F0A9FE000707D5204600F01BF920686F
:10101000416901F008014161206805F09CFEC002B1
:1010200008D50021204600F035F82068416901F418
:1010300080114161206805F08EFE800208D50021F4
:10104000204600F02BF82068416901F4001141614D
:10105000206805F080FE400007D52046FFF7A0FC81
:101060002068416901F080414161206805F073FE0C
:1010700040070AD520684568680702D52046FFF773
:10108000A6FC2168486828434860BDE8FC9F000032
:101090000A30544FD0F8040404F0C0BED0F8040461
:1010A00004F0BEBE2DE9F04104008AB005D094F8EA
:1010B000BD030025266820B108E001200AB0BDE884
:1010C000F081204684F8BC5300F066F8032084F8D1
:1010D000BD03F06BC00500D42561206805F0CEFB90
:1010E00004F11001684628228846FFF7F1F894E8D9
:1010F0000F0005F057FA0227D8BB2068002105F041
:101100003CFE0020012610E0C0EBC001421C04EBB5
:10111000810181F83D6081F83F504D648D640D651B
:1011200081F83C00A1F84200D0B261688142EBD85E
:10113000002011E0C0EBC001421C04EB810181F8EA
:10114000FD5181F8FF51C1F80452C1F80852C1F8AD
:10115000105281F8FC01D0B261688142EAD828229D
:1011600041466846FFF7B4F894E80F0005F0CAFA64
:1011700010B184F8BD73A0E7606A84F8385084F831
:10118000BD63012802D12046FFF7CEFB206805F0A1
:10119000ADFA002092E7000010B586B00446142195
:1011A0006846FFF7AEF817492068884228D11648EC
:1011B000016841F00101016000680A23022200F089
:1011C0000100059000204FF4C05100916946CDE91F
:1011D0000120CDE903030D48FFF782F90A480838DA
:1011E000016841F00061016000680022012100F007
:1011F000006005906520FFF765FB6520FFF754FB55
:1012000006B010BD00000840E0440258000002583B
:1012100070B50446C068012570B1022801D0FFF7FF
:101220004CF9D4F80404294604F04FFED4F8040421
:10123000BDE8704004F00BBE0025F2E7D0F80404CE
:1012400004F02DBED0F8040404F033BE10B50446FB
:1012500090F8BC0301280BD0012084F8381084F8E2
:10126000BC03206805F0A0FD002084F8BC0310BD7D
:10127000022010BDD0F8042400F57171104604F06E
:1012800030BE10B590F8BC1304460068012906D0A2
:10129000A26A012184F8BC13012A02D008E00220CE
:1012A00010BDA169012903D0816B41F480318163B4
:1012B000206805F00FFA206805F0ECFC002084F8A7
:1012C000BC0310BD10B50446D0F8040404F046FE7B
:1012D0002068D0F8001E41F00101C0F8001E206A0D
:1012E000002804D00248016841F00601016010BDE9
:1012F00010ED00E0134970B50A68D243520705D5D6
:10130000096801F00701814213D118E00A6822F050
:10131000070202430A60FFF70FFA0A4D4FF47A768C
:101320000446083D07E000BFFFF706FA001BB04285
:1013300001D9012070BD2868C0438004F4D4002086
:1013400070BD00000C4802580248016841F08071ED
:10135000016070470C4802582DE9FC5F044650F8C4
:10136000241B002500902E460801FE4FDFF8F8836D
:101370001DD5606E50B1B0F5801F0CD0B0F5001FC8
:101380000ED0B0F5401F1DD001250FE0386840F4A5
:101390000030386016E00221201D02F0F3FC03E06B
:1013A0000098022102F07EFD05000BD02E46208819
:1013B000C00523D5606D05281ED2DFE800F00C11B2
:1013C000161B1B00626ED8F8001021F44011114367
:1013D000C8F80010EBE7386840F40030386009E0E6
:1013E0000021201D02F0CEFC03E00098002102F055
:1013F00059FD05466DB100E001252E462088800587
:1014000028D5A06D80281ED00CDC90B140280ED1CC
:1014100014E0626DD8F8001021F007011143C8F8FC
:101420000010EBE7C02813D0B0F5807F10D0012565
:101430000FE0386840F40030386009E00021201DDA
:1014400002F0A0FC03E00098002102F02BFD05460D
:1014500095B12E462088DFF81093400509F1080960
:101460002CD5D4F8A400B0F5800F20D00DDCA0B1AD
:10147000B0F5001F0FD115E0A26DD8F8001021F4CF
:10148000E0711143C8F80010E4E7B0F5C00F13D0C5
:10149000B0F5000F10D001250FE0386840F400309F
:1014A000386009E00021201D02F06CFC03E0009888
:1014B000002102F0F7FC054675B12E462088000594
:1014C0002DD5D4F8A800B0F1007F21D00EDCA8B152
:1014D000B0F1807F10D116E0D4F8A420D9F8001024
:1014E00021F460011143C9F80010E7E7B0F1407F33
:1014F00013D0B0F1806F10D001250FE0386840F4B0
:101500000030386009E00021201D02F03BFC03E0C0
:101510000098002102F0C6FC05468DB12E462068D9
:10152000DFF844B28001ABF1040B1FD5A06CD8B139
:1015300010280FD0202812D0302815D0012514E013
:10154000D4F8A820D9F8001021F0E0611143C9F8BF
:101550000010E4E7386840F40030386004E002210D
:10156000201D02F00FFC05466DB12E462088C004F8
:101570002BD5E06DB0F5005F20D00DDCA0B1B0F54B
:10158000805F0FD115E0A26CDBF8001021F0300174
:101590001143CBF80010E9E7B0F5405F13D0B0F588
:1015A000804F10D001250FE0386840F400303860DB
:1015B00009E00021201D02F0E5FB03E00098002176
:1015C00002F070FC054685B12E462088800429D59E
:1015D000206EB0F5403F23D010DC08B3B0F5803F5B
:1015E00014D0B0F5003F0FD115E0E26DD8F800102F
:1015F00021F4E0411143C8F80010E6E7B0F5802F70
:101600000ED0B0F5A02F0BD001250AE00121201D3E
:1016100002F0B8FB03E00098012102F043FC05460C
:101620008DB12E46208840042AD5D4F8AC00B0F104
:10163000405F23D010DC08B3B0F1805F14D0B0F16C
:10164000005F0FD115E0226ED8F8001021F4E021E0
:101650001143C8F80010E5E7B0F1804F0ED0B0F1AB
:10166000A04F0BD001250AE00121201D02F08AFBCA
:1016700003E00098012102F015FC05466DB12E46ED
:10168000208800041FD5E06ED8B1B0F1805F0ED085
:10169000B0F1005F10D0012514E0D4F8AC20D9F8E7
:1016A000001021F0E0411143C9F80010E8E7386864
:1016B00040F40030386004E00121201D02F062FB9C
:1016C00005466DB12E462068C0011ED5606CD0B1B4
:1016D00001280ED0022811D0032814D0012513E0D0
:1016E000E26ED8F8001021F040511143C8F8001004
:1016F000E9E7386840F40030386004E00221201D3A
:1017000002F040FB054665B12E462068400257D5E1
:101710001648016841F480710160FFF70DF88246B8
:101720000EE0626CDBF8001021F003011143CBF8EE
:101730000010EAE7FFF700F8A0EB0A0064283DD8A4
:101740000A480068C005F5D57DBBDFF81CA0B4F8D9
:10175000B0100AF1200ADAF8000001F4407100F438
:10176000407005E02C44025850440258004802588A
:10177000884211D0DAF80010DAF8002021F4407124
:1017800042F48032CAF80020DAF8002022F48032D5
:10179000CAF80020CAF80010D4F8B000B0F5807F75
:1017A00021D1FEF7C9FF019019E008E0FEF7C4FF60
:1017B0000199411A41F28830814210D903252E4601
:1017C0002078DFF80CA4C0073DD0A06F182838D0CF
:1017D00026DC80B3082829D0102825D12CE0DAF89F
:1017E00000008007E2D5D4F8B010C1F3012003282F
:1017F000F8480DD0016821F47C510160B4F8B020A4
:10180000DAF80010C2F30B021143CAF80010D7E750
:10181000F14A036802EA111223F47C511143ECE708
:1018200020280ED028280CD001250BE00121201DF6
:1018300002F0A8FA04E004E00098012102F032FB73
:1018400005465DB12E46207880071ED5606F0628BC
:1018500019D2DFE800F0160C11161616A26FDAF88E
:10186000001021F038011143CAF80010EBE7012104
:10187000201D02F087FA03E00098012102F012FB1C
:10188000054675B100E001252E46207840071FD59A
:10189000D4F89000062819D2DFE800F0160C1116D3
:1018A0001616626FDAF8001021F007011143CAF82A
:1018B0000010EAE70121201D02F064FA03E000981D
:1018C000012102F0EFFA05469DB100E001252E4608
:1018D000207880062BD5D4F88C00B0F1405F24D05E
:1018E00011DC10B3B0F1805F15D0B0F1005F10D102
:1018F00016E0D4F89020D9F8001021F00701114328
:10190000C9F80010E4E7B0F1804F0ED0B0F1A04F5D
:101910000BD001250AE00021201D02F033FA03E07C
:101920000098022102F0BEFA05468DB12E462078BD
:1019300040062BD5D4F89800B0F5406F24D011DCC8
:1019400010B3B0F5806F15D0B0F5006F10D116E070
:10195000D4F88C20DAF8001021F0E0411143CAF8E5
:101960000010E4E7B0F5805F0ED0B0F5A05F0BD0BB
:1019700001250AE00021201D02F004FA03E000988E
:10198000022102F08FFA05468DB12E46207800061E
:101990002BD5D4F89C00B0F5C04F24D011DC10B387
:1019A000B0F5005F15D0B0F5804F10D116E0D4F837
:1019B0009820D9F8001021F4E0511143C9F8001023
:1019C000E4E7B0F5004F0ED0B0F5204F0BD0012565
:1019D0000AE00021201D02F0D5F903E00098022161
:1019E00002F060FA05464DB12E46207800071ED55C
:1019F000D4F88000B0F5805F0AD00FE0D4F89C20C6
:101A0000D9F8001021F460411143C9F80010ECE747
:101A10000098022102F046FA00B10126D4F8802095
:101A2000DAF8001021F440511143CAF80010207870
:101A3000C00613D5D4F89400B0F5807F05D1009886
:101A4000022102F02FFA00B10126D4F89420D9F82F
:101A5000001021F440711143C9F800102068000300
:101A600016D5D4F8A00038B1B0F5803F09D0B0F554
:101A7000003F0BD001250AE00021201D02F082F971
:101A800003E00098022102F00DFA054685B12E46CA
:101A90002068400322D5D4F88400B0F5801F11D00F
:101AA000B0F5001F13D0B0F5401F15D0012514E08C
:101AB000D4F8A020D9F8001021F440311143C9F81E
:101AC0000010E5E7386840F40030386004E0009822
:101AD000012102F0E7F9054655B12E462068C00302
:101AE0001CD5E06C70B1B0F5803F10D0012514E03A
:101AF000D4F88420DAF8001021F440111143CAF818
:101B00000010EBE7386840F40030386004E0022150
:101B1000201D02F037F90546CDB12E462068800021
:101B200005D50098022102F0BDF900B10126206818
:101B300080031BD5E06FB8B1B0F5807F10D0B0F551
:101B4000007F11D0B0F5407F0ED001250DE0E26C92
:101B5000DBF8001021F480311143CBF80010DDE7F1
:101B6000386840F400303860C5B32E462068C002A3
:101B700007D5226FD8F8001021F000411143C8F8B2
:101B800000102068800207D5A26ED8F8001021F05E
:101B900080711143C8F800102068400009D50D4835
:101BA000016821F4004101600168D4F8B8201143B4
:101BB00001602068002807DA226DDBF8001021F0B0
:101BC00040511143CBF8001096B10120BDE8FC9FB5
:101BD0005444025810440258CFFFFF00FFE7E26F61
:101BE000DAF8001021F440711143CAF80010BDE783
:101BF0000020EBE72DE9F05F04000F467ED0DFF810
:101C00003882D8F8000000F00F00B8420CD2D8F8A3
:101C1000001021F00F013943C8F80010D8F8000077
:101C200000F00F00B84269D12078844D40070AD5F2
:101C30002069296801F07001884204D9296821F0DF
:101C400070010143296020787C4E361D00070AD5BB
:101C50006069316801F07001884204D9316821F06F
:101C60007001014331602078C0060AD5A06931684F
:101C700001F4E061884204D9316821F4E061014354
:101C800031602078DFF8B4B180060BF1080B0CD579
:101C9000E1695846DBF8002002F07002914204D955
:101CA000026822F070020A430260207880070AD599
:101CB000E068296801F00F01884204D9296821F001
:101CC0000F01014329602078C0073ED05B49A2681C
:101CD0002868183920F47060104328606068022872
:101CE00018D0032819D00968012819D049070029FC
:101CF0004ADADFF848A1AAF1080A00E044E0DAF87D
:101D0000002022F007020243CAF80020FEF714FD6B
:101D1000814612E009688903E9E709688901E6E775
:101D2000C905E4E7FEF708FDA0EB090141F28830A0
:101D3000814202D90320BDE8F09F6168DAF8000013
:101D400000F03800B0EBC10FECD1207880070AD545
:101D5000E068296801F00F01884204D2296821F067
:101D60000F0101432960D8F80010404601F00F012F
:101D7000B9420BD9016821F00F01394301600068B5
:101D800000F00F00B84201D00120D4E720784007CE
:101D90000AD52069296801F07001884204D22968B7
:101DA00021F0700101432960207800070AD560699D
:101DB000316801F07001884204D2316821F070016D
:101DC000014331602078C0060AD5A069316801F46A
:101DD000E061884204D2316821F4E061014331605E
:101DE000207880060CD5E1695846DBF8002002F027
:101DF0007002914204D2026822F070020A4302602B
:101E000000F048F80E492A682B68C2F3032203F059
:101E10000F038A5CC95C02F01F0201F01F01D04071
:101E2000084A20FA01F11160074908600748006874
:101E3000BDE8F05FFEF7BCBC002000521844025819
:101E40009C7F0090840000248000002478000024FF
:101E500030B500F01FF80B4A0B490C4B156814689D
:101E6000C5F3032204F00F048A5C095D02F01F022F
:101E700001F01F01D040064A20FA01F119601060FC
:101E8000084630BD184402589C7F0090840000240E
:101E900080000024454970B545480968434B103B14
:101EA00011F0380208D00111082A03D0102A0BD0F3
:101EB000182A0BD0084670BD19688906FBD5196829
:101EC000C1F3C101C84070BD3A4870BD3749374DB4
:101ED00018310C1D24350A68096826682D6802F03F
:101EE000030406F00102C1F30511C5F3CC0515FB8F
:101EF00002F200EE102AB8EE400AE9B32F4ADFEDF5
:101F00002E0AB7EE001A6CB1DFED2D1A012C01D0AC
:101F1000022C43D002EE101A1068F8EE422A81EE2D
:101F2000A22A1EE01C68A40611D51B6801EE901AB7
:101F30001168C3F3C103F8EE612AD84001EE900A9C
:101F4000C1F30800F8EE611A81EEA22A0BE001EE5F
:101F5000901ADFED1C2A00BFF8EE611A106882EEBD
:101F6000A12AC0F3080001EE900AF8EE611A40EED3
:101F7000201A31EE810A00E015E022EE000A106816
:101F8000C0F34620401C00EE900AF8EE600A80EE96
:101F9000201ABCEEC10A10EE100A70BD01EE901AB4
:101FA000DFED092AD8E7002070BD00001044025878
:101FB0000090D00340787D01000000393044025881
:101FC0000024744A0024744C20BCBE4B2DE9F05F01
:101FD00004007CD0FF4F2078FE4D1837DFF8F493D3
:101FE000103DC00748D0D9F80000396800F038002B
:101FF000102815D0182803D101F0030002280FD0B3
:102000006068B0F5803F12D010B1B0F5A02F18D0A5
:10201000286820F480302860286820F4802009E0B7
:102020002868800328D560680028D2D024E028687A
:1020300040F480302860606888B1FEF77DFB06467A
:1020400009E0286840F480202860F0E7FEF774FB80
:10205000801B64287ED828688003F7D50CE0FEF743
:102060006BFB064605E000BFFEF766FB801B64289D
:10207000F0D828688003F7D4207841F20308D54EC1
:102080000C3E80074BD5D9F80000396810F03800B5
:102090000ED0182801D188070AD0E06868B32968F3
:1020A00021F0190101432960FEF746FB824619E041
:1020B0002868400702D5E06800288AD0FEF736FB82
:1020C000404513D82069316821F47C3100E0BEE03E
:1020D00041EA0030306022E0FEF72EFBA0EB0A0060
:1020E0000228B7D828684007F6D5E7E7207C316892
:1020F00021F0FE4141EA0060ECE7286820F0010091
:102100002860FEF719FB824606E000BFFEF714FBCD
:10211000A0EB0A0002289DD828684007F6D4207852
:10212000C00659D5D9F80000DFF8A8B2396800F028
:102130003800ABF1040B082812D0182803D101F0A5
:10214000030001280CD0E0690028286834D040F052
:10215000800000E0DCE02860FEF7EEFA824623E033
:102160002868C00523D5E069802870D11FE000BF32
:1021700094F82000316821F0F84141EA8060306035
:102180002AE000BF94F82010DBF8002022F07C52F7
:1021900042EA0161CBF800101EE000BFFEF7CCFA66
:1021A000A0EB0A0002289CD82868C005F6D5FEF7E7
:1021B000BDFA4045E6D8DBE720F080002860FEF756
:1021C000BBFA064605E000BFFEF7B6FA801B022800
:1021D00087D82868C005F7D42078000729D57D481E
:1021E0006169643000298046016811D041F0010125
:1021F0000160FEF7A1FA064605E000BFFEF79CFA73
:10220000801B022887D8D8F800008007F6D510E098
:1022100021F001010160FEF78FFA064605E000BFDC
:10222000FEF78AFA801B022872D8D8F800008007CF
:10223000F6D42078800623D5A0690028286810D01D
:1022400040F480502860FEF777FA064605E02EE15C
:10225000FEF772FA801B02285AD828688004F7D546
:102260000EE020F480502860FEF766FA064604E08F
:10227000FEF762FA801B02284AD828688004F7D447
:10228000207840074FD5DFF85081D8F8001041F48E
:102290008071C8F80010FEF74FFA064605E000BF4F
:1022A000FEF74AFA801B642832D8D8F80000C0052F
:1022B000F6D5484EA068603601280AD008B1052836
:1022C00013D0306820F001003060306820F0040046
:1022D00002E0306840F001003060A06841F2883AC6
:1022E00090B1FEF729FA80460AE0306840F0040019
:1022F0003060EEE7FEF720FAA0EB0801514507D861
:1023000030688007F6D50EE0FEF716FA804607E043
:1023100084E000BFFEF710FAA0EB080151457DD81C
:1023200030688007F6D4606AF0B3DFF8A880D9F887
:10233000001008F12008C1F3C20103296FD0022860
:10234000286820F08070286003D0FEF7F5F9044675
:1023500082E0FEF7F1F9064605E000BFFEF7ECF972
:10236000801B022875D828688001F7D4E26A40F201
:10237000F331386854F8283F884340EA0210184384
:102380003860217B4FF4FE0C22894FF0FE47208AF3
:102390004902267D521E401EA1F5007189B20CEA49
:1023A0000040C2F3080200E083E01143761E0143BF
:1023B000084807EA06621143064A1C30C8F80010B4
:1023C0002432016821F00101016011684FF6F876AE
:1023D000B14303E01044025800480258236A41EA1E
:1023E000C30111600168A26921F00C011143016071
:1023F0000168E26921F0020111430160016841F4C2
:1024000080310160016841F400310160016841F4EC
:1024100080210160016841F0010101E019E01FE045
:102420000160286840F080702860FEF785F9044656
:1024300005E000BFFEF780F9001B022809D82868D4
:102440008001F7D535E000BFFEF776F9001B0228C2
:1024500002D90320BDE8F09F28688001F4D428E069
:1024600039680128D8F8000021D0A26A01F00303DE
:1024700093421CD1E26AC1F305118A4217D1216B44
:10248000C0F30802491E8A4211D1616BC0F3462293
:10249000491E91420BD1A16BC0F30642491E9142E5
:1024A00005D1E16BC0F30660491E814201D00120D5
:1024B000D0E70020CEE700002DE9F04104004FF006
:1024C000010554D094F82100002528B9002084F893
:1024D0002000204600F050F8022184F82110CA2084
:1024E00022685321506220684162204601F06AFD53
:1024F0004FF0FF064FF0040710BB20681D4A8168AB
:1025000011408160D4E90013D4F818C022698868AA
:1025100042EA0C0218431043886022682189E0686F
:1025200040EA014010612068C16821F08001C1606B
:1025300020688068800609D4204600F02BF828B176
:1025400020680125466284F8217010E0206801228D
:10255000C16C21F00301C16421686369E069CF6C3B
:1025600018433843C8642068466284F8212028460E
:10257000BDE8F081BFFF8FFF00680449884204D1A5
:102580000348016841F40041016070470040005871
:102590007044025870B504460068C16821F0A0017B
:1025A000C160FEF7C9F84FF47A76054607E000BF30
:1025B000FEF7C2F8401BB04201D9032070BD20686D
:1025C000C0688006F4D5002070BD00002DE9F047FA
:1025D000040029D04A4A4FF000092068494B4A4D6F
:1025E0009042C4F8289006D0984204D0A84202D065
:1025F000E1680F2918D8E1684FF0010AE76B08314C
:10260000C9080AEB57167143904205D0984203D08F
:10261000A84201D0082907D8904203D0984201D09F
:10262000A84204D1102902D90120BDE8F08794F80E
:10263000810020B9204684F8809000F067F80220DD
:1026400084F881002068016821F001010160A0691F
:10265000B0F1806F0AD16068B0F5800F06D1A06B31
:1026600020B92068016841F480510160A56AE069E1
:102670002368E16B2843E268084310439860D4E97B
:102680000D02D4E905C1636A25691843D4F8208096
:102690000A43266810432843A56DD4E90172D4E9A2
:1026A000123140EA0C0040EA080038430843104366
:1026B00018432843F060606868B92068816821F495
:1026C000C05141F4006181602068816821F4C061DB
:1026D00041F4806181602068016D21F00101016594
:1026E0006068400206D52068626DC16821F0004133
:1026F0001143C160C4F8849084F881A0002094E75D
:102700000030014000380040003C0040F0B587B088
:10271000064614216846FDF7F4FD26480025326878
:102720000224254B10382349012605279A4224D13B
:102730000A6842F480520A60096801F480510591E8
:10274000016841F008010160016801F0080105918C
:10275000016841F0020101600068694600F0020072
:10276000059080208DE8F1001448FDF7B9FE18208F
:1027700069468DE8F100124818E0124B9A4217D1D1
:102780000A6842F400520A60096801F40051059198
:10279000016841F0100101600068694600F0100016
:1027A00005904FF4A0408DE8F1000748FDF798FE32
:1027B00007B0F0BDF044025800300140000C025850
:1027C0000004025800340140001002582DE9F84F6F
:1027D0000F46416804461D4600201646B1F5800F9D
:1027E0004FF0040B009001D1A06888B194F88000EC
:1027F000012818D04FF0010984F88090FDF79CFF64
:1028000094F881108246002001290ED0022125E093
:1028100084F881B02046009313463A46114600F0F2
:10282000FFF9BDE8F88F0220FBE7B7B1AEB1A268AF
:1028300080466766A4F8686084F881B0C4F88400B4
:10284000A4F86A60E065A4F86000A4F86200B2F53C
:10285000C02F2067606705D009E0012184F880005F
:102860000846DEE72068016821F400610160206805
:1028700041686FF30F01314341602068016841F006
:10288000010101606068B0F5800F04D12068016823
:1028900041F400710160E0680F282ED948F2080663
:1028A000B4F86A00002858D02068416931420BD042
:1028B000006B616E0860606E001D6066B4F86A00AF
:1028C000401EA4F86A00EBE7FDF736FFA0EB0A0014
:1028D000A84202D3681CE3D001E0002DE0D12046DD
:1028E00001F046FED4F8842084F8808042F48071A0
:1028F000C4F8841084F8819078E0072829D867E02C
:102900002068416911F4604F18D04169090409D564
:10291000006B616E0860606E001D6066B4F86A004E
:10292000801E08E0008E616E0880606E801C60660C
:10293000B4F86A00401EA4F86A000AE0FDF7FCFE45
:10294000A0EB0A00A84202D3681C02D0C7E7002D02
:10295000C5D0B4F86A000028D2D13DE020684169B2
:1029600011F4604F29D04169090409D5006B616EEB
:102970000860606E001D6066B4F86A00001F19E010
:10298000416901F4C041B1F5005F09D9008E616E63
:102990000880606E801C6066B4F86A00801E09E0E2
:1029A00090F83000616E0870606E401C6066B4F88C
:1029B0006A00401EA4F86A000AE0FDF7BDFEA0EB25
:1029C0000A00A84202D3681C02D088E7002D86D0F6
:1029D000B4F86A000028C1D1204601F0C9FD84F88E
:1029E0008190D4F8841084F8808009B1012018E720
:1029F000009816E72DE9F84F8A4690F880101D469A
:102A00001746012904464FF0000B0DD04FF0010886
:102A100084F88080FDF790FE814694F881000026BE
:102A2000012804D002201EE00220BDE8F88FBAF190
:102A3000000F17D0B7B1A1680320C4F85CA0A4F8B8
:102A4000607084F88100C4F88460A4F862706666DF
:102A5000A4F86860A4F86A60B1F5C02F66672667BD
:102A600004D008E0012084F88060DEE72068016877
:102A700041F400610160206841686FF30F01394340
:102A800041602068016841F0010101606068B0F5B3
:102A9000800F04D12068016841F400710160E06892
:102AA0000F281AD82CE02068416989070BD5E16D01
:102AB00009680162E06D001DE065B4F86200401E27
:102AC000A4F8620009E0FDF737FEA0EB0900A84278
:102AD00002D3681C01D005E025B1B4F862000028DB
:102AE000E1D181E0204601F043FDD4F8841084F860
:102AF000806041F48071C4F8841084F881808BE098
:102B000007282BD86CE02068416989071BD5B4F8E9
:102B1000621001290BD9E16B49B1E16D09680162CD
:102B2000E06D001DE065B4F86200801E08E0E16D14
:102B300009880184E06D801CE065B4F86200401EE5
:102B4000A4F862000AE0FDF7F7FDA0EB0900A84237
:102B500002D3681C02D0C5E7002DC3D0B4F86200D0
:102B60000028D0D140E02068416989072DD5B4F80C
:102B7000621003290CD9E16B402909D9E16D09687C
:102B80000162E06D001DE065B4F86200001F19E00D
:102B9000B4F8621001290BD9E16B49B1E16D0988E4
:102BA0000184E06D801CE065B4F86200801E09E0DD
:102BB000E16D097880F82010E06D401CE065B4F804
:102BC0006200401EA4F862000AE0FDF7B5FDA0EB2C
:102BD0000900A84202D3681C02D083E7002D81D0EF
:102BE000B4F862000028BED100224B4608212046DE
:102BF000009501F01BFD28B1D4F8840040F02000BE
:102C0000C4F88400204601F0B3FC84F88180D4F835
:102C1000840084F8806008B1012006E7584604E784
:102C20002DE9FF4F83B090F8801004461D46002028
:102C30009346109F0129019014D04FF0010A84F8A7
:102C400080A0FDF779FD804694F88100636800213B
:102C500001282E464FF480020CD0934208D1A3687D
:102C600033B903E0022007B0BDE8F08F042801D09B
:102C7000022037E0049898B3BBF1000F31D07DB348
:102C800094F88100042802D0052084F88100894648
:102C90000846C4F88410C4F864B0A4F86A50A4F8D4
:102CA00068500499E165A4F86250A4F86050206768
:102CB0006067206841686FF30F0129434160206815
:102CC000016841F0010101606068904204D1206810
:102CD000016841F400710160E0680F282BD846E0DC
:102CE000FFE7012084F88010BDE72068416989076B
:102CF0000DD565B1E16D09680162E06D001DE0650B
:102D0000B4F86200401EA4F86200B4F8625048F2C1
:102D100008022068416911420DD066B1006B616EF6
:102D20000860606E001D6066B4F86A00401EA4F87A
:102D30006A00B4F86A6055EA0600D6D1FDF7FCFCDB
:102D4000A0EB0800B84202D3781C02D1DDE0002FCE
:102D50005DD1204601F00CFCD4F8842084F88090EA
:102D600042F48070C4F8840084F881A0E5E007286C
:102D70004AD8C7E02068416989071BD5D5B1012D24
:102D80000BD9E16B49B1E16D09680162E06D001D8D
:102D9000E065B4F86200801E08E0E16D09880184F6
:102DA000E06D801CE065B4F86200401EA4F862008B
:102DB000B4F862502068416911F4604F1AD0CEB166
:102DC0004169090409D5006B616E0860606E001DE1
:102DD0006066B4F86A00801E08E0008E616E0880AC
:102DE000606E801C6066B4F86A00401EA4F86A0039
:102DF000B4F86A60FDF7A0FCA0EB0800B84202D36B
:102E0000781C01D004E01FB155EA0600B2D17CE085
:102E1000204601F0ADFBD4F8842084F8809042F481
:102E20008071C4F8841084F881A086E0206841692C
:102E300089072BD555B3032D0CD9E16B40290BD94C
:102E4000E16D09680162E06D001DE065B4F86200A3
:102E5000001F17E0012D0BD9E16B49B1E16D098825
:102E60000184E06D801CE065B4F86200801E09E01A
:102E7000E16D097880F82010E06D401CE065B4F841
:102E80006200401EA4F86200B4F8625020684169F4
:102E900011F4604F2BD056B34169090409D5006B7A
:102EA000616E0860606E001D6066B4F86A00001F05
:102EB00019E0416901F4C041B1F5005F09D9008E04
:102EC000616E0880606E801C6066B4F86A00801EC7
:102ED00009E090F83000616E0870606E401C60661A
:102EE000B4F86A00401EA4F86A00B4F86A60FDF7FE
:102EF00023FCA0EB0800B84202D3781C02D028E7DC
:102F0000002FFCD055EA060090D10022434608214C
:102F10002046009701F08AFB28B1D4F8840040F0E5
:102F20002000C4F88400204601F022FB84F881A030
:102F3000D4F8840084F8809008B1012093E60198C9
:102F400091E6401EB0F1807F10B501D3012010BD85
:102F50004FF0E02460610F21601704F08EF900202B
:102F6000A0610721216110BD2DE9F04390F83C20BC
:102F7000012A42D0012280F83C2051F80C4BDFF8A6
:102F800080804FF0000991E8680051E9022723F49E
:102F90004073B1F80CC03B43CF6923F48063134303
:102FA000026823F40063234323F4805343EA0503B8
:102FB00023F4005343EA060323F4804343EA070360
:102FC0000C3923F47023424543EA0C4302D00D4CE4
:102FD000A2420CD18D8C23F47006D1E9073446EA65
:102FE000055121F08071194321F00073234353648C
:102FF00080F83C900020BDE8F0830220FBE7000051
:103000000000014000040140F0B590F83C20012A86
:1030100038D01D4E012480F83C40022280F83D202B
:1030200002681A4D5368B242D2F808C001D0AA42D1
:1030300003D14F6823F470033B430F6823F0700300
:103040001F4357600268B24210D0B2F1804F0DD0DA
:103050000F4B9A420AD00F4B9A4207D00E4B9A421E
:1030600004D0AA4202D00D4B9A4204D189682CF0B8
:10307000800319439160002180F83D4080F83C10A6
:103080000846F0BD0220F0BD0000014000040140F0
:103090000004004000080040000C00400018004000
:1030A00010B504220446006802F09EFA2068094A1E
:1030B000416C41F400414164206881681140062957
:1030C00006D0B1F5803F03D0016841F001010160F5
:1030D000002010BD0700010010B586B00446142181
:1030E0006846FDF70EF90E492068884216D10D4852
:1030F000016841F01001016000680123022200F024
:103100001000059000204FF4806100916946CDE9E0
:103110000120CDE903030448FDF7E2F906B010BD34
:1031200000000140E04402580010025870B5044607
:1031300090F83C000D4601280ED0012684F83C6032
:10314000022084F83D000C2A45D007DC5AB1042A3D
:103150001BD0082A78D12CE0022070BD102A4ED056
:10316000142A71D15DE0206802F04CFA2068816970
:1031700041F0080181612068816921F004018161C9
:1031800020682A698169114311E0206802F08EFAF3
:103190002068816941F4006181612068816921F4BE
:1031A0008061816120682969826942EA0121816127
:1031B0004AE0206802F0C6FA2068C16941F00801BF
:1031C000C1612068C16921F00401C16120682A69D8
:1031D000C169114311E0206802F0FAFA2068C16960
:1031E00041F40061C1612068C16921F48061C1615D
:1031F00020682969C26942EA0121C16124E020688E
:1032000002F01CFB2068416D41F008014165206817
:10321000416D21F00401416520682A69416D114327
:1032200011E0206802F040FB2068416D41F400612C
:1032300041652068416D21F48061416520682969FC
:10324000426D42EA01214165002084F83D6084F826
:103250003C0070BD10B5040003D094F83D0010B1DF
:1032600007E0012010BD002084F83C00204600F05B
:103270000DF8022084F83D002068211D02F052F96B
:10328000012084F83D00002010BD000008B5006852
:103290000649884208D10648016841F001010160F1
:1032A000006800F00100009008BD0000000001402F
:1032B000F0440258FEE70000F0B500230A251C4642
:1032C0003026372711E000BFB5EB107F02D906EB9F
:1032D000107C01E007EB107C01F813C001EB430CFC
:1032E00000015B1C8CF80140DBB29342ECD3F0BDD3
:1032F0002DE9FF4F85B01D460C2B90460C468946A4
:10330000059804906348DDF848B0068819D008276E
:1033100015FB07F0400004F0DDFD03A982465E487E
:1033200001F0B0FB5C4802A901F0B4FBA8F1200158
:103330004FF00000C9B20791BBF1000F014602D067
:1033400097E00627E4E7DFF84CE149E00C2D0ED0CA
:10335000079B524A02EB0312002321F0010B525C3F
:10336000009313060AD573BAAEF800300CE0079A42
:1033700002EB42034A4A02EB8302EDE7BEF802C0C9
:103380009CFA9CFCAEF800C007FB00F3401CBEF8A2
:1033900000C080B20AEB4303A84223F80BC000D35D
:1033A0000020029B5206641CA4B2120E9C4202D35F
:1033B000AEF8006047E0A4EB0903AB4208D1059AE0
:1033C0004C46039B521C92B205929A42F0D205E001
:1033D000009B5B1CDBB20093082BC2D3491CC9B213
:1033E000A942B3D347E00C2D33D0079B2B4A02EB05
:1033F00003124FF0000B21F0010E525C130608D5AA
:10340000244B07FB00FC1B880AEB4C0C5BBA2CF826
:103410000E30401C80B2A84200D30020029B52060E
:10342000641CA4B2120E9C420BD2A4EB0903AB4263
:1034300016D1059A4C46039B521C92B205929A42B1
:1034400015D314480680504604F0F8FB09B0BDE8D7
:10345000F08F079A02EB4203114A02EB8302C8E79E
:103460000BF1010303F0FF0BBBF1080FC6D3491C9E
:10347000C9B2A942B7D30C2D09D008200499CDE9CF
:103480000005054853464A4601F064FAD9E706208C
:10349000F4E7000030010024100C00243784009071
:1034A000C37F00902DE9F84F0D46044658194FF0A0
:1034B000000A111987B21FFA81F8DDE90AB604F093
:1034C000FF0912E0444503D305EB0B004C4685B2DF
:1034D000BD420FD25B4629462046CDF800A0FFF73B
:1034E00007FF04EB5B0084B2761C3278A2F1200067
:1034F0005E28E7D9BDE8F88FF0B52B4C032187B0E3
:1035000000250120A160257360732849284801F037
:1035100063FD284E052126482246336898472349F3
:10352000B268091F22489047234F386885630022FC
:1035300060681146CDE90005B56B23681C48A847B3
:103540001EA102A803F072FE02AD1026042133462C
:10355000CDE90065208882B20846FFF7A3FFFDF79A
:10356000DDF81AA1024602A803F060FECDE900656D
:1035700020881023162182B20420FFF793FF0B4806
:1035800016A10838426802A803F050FECDE9006594
:1035900020881023282182B20420FFF783FF396896
:1035A0000A20886307B0F0BD4811002438010024C8
:1035B000100C0024580100240403002457654163C3
:1035C000742053747564696F0000000053544D33C8
:1035D0003248377878203078255800004C43442012
:1035E00049443A307825580070B50A4D0122082127
:1035F00004462846FDF78CF8601EFCF75FFF0022AA
:1036000028460821FDF784F8BDE8704040F2F31029
:10361000FCF754BF001002587FB5002500950195B6
:1036200002950395FDF712F901248DF800401B2047
:103630008DF808008DF80B504FF010468DF80A40B9
:1036400068468DF80150019603948DF80950FDF7F6
:10365000CFF816208DF808008DF80F4005218DF861
:103660000B1068468DF80E408DF800408DF80D5017
:103670008DF80A408DF8014001968DF80C508DF8B8
:103680000950FDF7B5F812218DF808108DF80F409C
:1036900003228DF80B20B0088DF80E4002238DF820
:1036A00000408DF80D408DF80A40019068468DF875
:1036B00001308DF809508DF80C50FDF799F8042071
:1036C000FDF7D2F87FBD70B5D0F8B842054604F5D5
:1036D0008051087E38B9486928B1607A18B901214B
:1036E000284602F029FC8121284602F025FC607A58
:1036F000022809D141F20C0022182846BDE870408A
:103700001F23012102F09ABB70BD00002DE9F0419A
:10371000D0F8B8420646012104F58055286928638F
:1037200068696863304602F033FB1F280AD12849D4
:10373000E868884206D1697E012903D8A87E08B1CD
:10374000102808D9697E20230522304600F094FE17
:10375000022060720AE041F21B002218304600F09D
:1037600061FC0028207A08DA052804D03046BDE83C
:10377000F041FFF7A8BF012123E0022826D001284D
:1037800024D0032822D06589D5B104F10C02D6F8E3
:10379000B842304604F580514B69AB4200D32B460A
:1037A0004E6B00274FF0040C751B4D6381F8387089
:1037B0009BB284F808C08121BDE8F04102F0D7BB7C
:1037C00000213046BDE8F04100F08CB8BDE8F08142
:1037D0005553424310B5D0F8B842627A022A08D055
:1037E00009060BD5012A09D0BDE81040012100F0DF
:1037F00079B8812102F0A0FB0020607210BD10B5E5
:10380000D0F8B8220446107A022805D0032801D047
:10381000042811D100210AE041F21900831C815CC7
:103820001A44204600F0FEFB002805DA012120465C
:10383000BDE8104000F056B810BD10B5D0F8B82261
:103840000446107A88B1012814D141F21900831C72
:10385000815C1A44204600F0E5FB00280ADA204685
:10386000BDE81040012100F03DB82046BDE8104001
:10387000FFF74CBF10BDD0F8B802002101727047AD
:1038800070B5D0F8B8420546002104F58050217289
:10389000617280F85D1080F85C10D5F8BC02016898
:1038A000002088470121284602F069FA8121284634
:1038B00002F065FA41F20C0022182846BDE870407B
:1038C0001F23012102F0BABAD0F8B8120023012256
:1038D0000B721F234A7241F20C020A44012102F0CA
:1038E000ADBA000070B5D0F8B84205460C4B0020C8
:1038F00004F58052D3620D2382F8381081212072A2
:1039000041F22C002218284602F031FB41F20C0053
:1039100022182846BDE870401F23012102F08EBA0C
:10392000555342532DE9F04387B014216846FCF704
:10393000E8FC3348016841F010010160016801F0C2
:1039400010010591016841F004010160016801F076
:1039500004010591016841F080010160016801F0F6
:1039600080010591016841F002010160016801F0E8
:1039700002010591016841F008010160016801F050
:1039800008010591016841F0010101600068002211
:10399000DFF87080082100F0010005904046FCF738
:1039A000B7FE4FF42057404601223946FCF7B0FEDF
:1039B000DFF85490012240214846FCF7A9FE00247C
:1039C0006946012508200090CDE901544046039442
:1039D000FCF786FD0326009703966946CDE901545E
:1039E0004046FCF77DFD40206946CDE90005CDE964
:1039F00002464846FCF774FD07B0BDE8F0830000BE
:103A0000E044025800100258000C02580C480021F3
:103A10000A4A7F2310B5FF2404C080E81A00C16061
:103A2000416181610161001FFEF746FD002803D05E
:103A3000BDE81040FCF741BD10BD0000004000583B
:103A4000D001002470B5154807224FF48005124EAE
:103A500000212C01C0E902120161A300C0E9051494
:103A6000C0E9073141629A008162C162C0E90D215B
:103A7000C163016441648164C1640165416581651C
:103A8000C0E90065FEF7A2FD002803D0BDE8704044
:103A9000FCF713BD70BD000000300140F4010024AC
:103AA0002DE9F04115484FF480060021124D3401F4
:103AB0000722C0E90321E300C0E90514C0E907318A
:103AC00041625A0081624FF4C027C162C0E90D21F2
:103AD000C163016441648164C164016541658165BC
:103AE00080E8E000FEF772FD002803D0BDE8F04159
:103AF000FCF7E3BCBDE8F081003401407C02002407
:103B000010B596B000241C210BA8129413941494A1
:103B1000FCF7F7FB2C216846FCF7F3FB22487722E1
:103B20002049632380E81600C0E9033444618461BE
:103B3000FFF790FB08B1FCF7C0FC1B4812A91294D8
:103B400013941494FFF760FA08B1FCF7B6FC6020F8
:103B50000821CDE90B0414480422CDE90D410BA93D
:103B60000F9410941194FFF7E1FA08B1FCF7A5FC4B
:103B70004FF400500094019401030294CDE90440F5
:103B800003940694CDE907410748694609940A94CD
:103B9000FFF7EAF908B1FCF790FC0348FFF79CFA3D
:103BA00016B010BD000001400403002410B503F05E
:103BB00029FA10490022104802F00BF808B1FCF76E
:103BC0007CFC0E490C4802F0E9FA08B1FCF775FCE0
:103BD0000B49094802F03EFA08B1FCF76EFC0648B2
:103BE00002F034FB08B1FCF768FCBDE81040FDF7BB
:103BF000ABBB000000000024440300248C00002420
:103C000050000024FEE770470148FDF709B80000A6
:103C1000080800242DE9F041044600690D462027DC
:103C2000236801284FF4004604F5717203EB451137
:103C3000D3F840C0D1F8080B09D0DFF89CE0F44578
:103C40003AD1020433D500BFC1F8086B40E0234BE2
:103C50005FEA007E04D59C453AD90004F4D437E0ED
:103C60005FEA806E02D5C1F8087B31E010F0280FC2
:103C70002ED19C4501D90004E6D4D1F8103BC5EB08
:103C8000C50004EB8000C3F31203D0F80412A1EBCB
:103C90000303C0F81432D0F808321944C0F80812EF
:103CA00095B9D4F8100278B9206801210AE080069D
:103CB0000AD5C1F8087B07E035B9D4F8100218B965
:103CC0000021184602F06EFE2046E9B2FCF775FEB0
:103CD0000020BDE8F08100000A31544F0A30544FF3
:103CE0002DE9F84F0E4605688146C1EBC60100EB91
:103CF0008104D4E914203C34904202D90120BDE86B
:103D0000F88FA168101A814200D20846C01C05EB4A
:103D1000461887081BE000BFA268A0EB010A5245C5
:103D200000D2924699F810100AF1030000911FFA90
:103D30008AF3E16887082846F2B203F0BBF8E1682D
:103D400001EB0A00E060A16901EB0A00A061D8F86C
:103D5000180980B2B84205D3D4E90501814201D2E5
:103D60000028D9D1D4E90501884208D8D5F83418FB
:103D7000012006F00F0290408143C5F8341800205E
:103D8000BDE770472DE9F047454D044689464FF0A1
:103D9000000A2868C04380070AD0414E283E306898
:103DA00020F080603060FCF7C7FC0746B04608E0B2
:103DB0000120BDE8F08700BFFCF7BEFCC01B022855
:103DC00067D8D8F800000001F6D4206829684FF4BD
:103DD000FE0721F47C313E0241EA00302860207A5F
:103DE000A389B4F804C040022D4D2D495B1E227CEE
:103DF000ACF1010C1035091DA0F5007080B2521E07
:103E0000CCF3080C07EA034340EA0C00184306EA27
:103E10000262104328600868626920F0C000104305
:103E200008600A68A06922F0200202430A60281D87
:103E30000A6822F010020A6002684FF6F873E4691B
:103E40009A4342EAC40202600868B9F1000F40F0E8
:103E500010020A6011D00868B9F1010F11D040F4C6
:103E600000100860D8F80000444640F08060C8F8B0
:103E70000000FCF761FC05460DE0086840F40020F6
:103E8000EFE740F48010ECE7FCF756FC401B0228FB
:103E900001D903208DE720680001F5D5504688E759
:103EA000284402582DE9F047454D044689464FF015
:103EB000000A2868C04380070AD0414E283E306877
:103EC00020F080503060FCF737FC0746B04608E031
:103ED0000120BDE8F08700BFFCF72EFCC01B0228C4
:103EE00067D8D8F800008000F6D4208829684FF4FD
:103EF000FE0721F07C713E0241EA00502860207AE2
:103F0000A389B4F804C040022D4D2D495B1E227CCC
:103F1000ACF1010C1835091DA0F5007080B2521EDD
:103F2000CCF3080C07EA034340EA0C00184306EA06
:103F30000262104328600868626920F44060104300
:103F400008600A68A06922F4007202430A60281D12
:103F50000A6822F480720A6002684FF6F873E46916
:103F60009A4342EAC40202600868B9F1000F40F4C3
:103F700080720A6011D00868B9F1010F11D040F0C9
:103F800080700860D8F80000444640F08050C8F8BF
:103F90000000FCF7D1FB05460DE0086840F4800006
:103FA000EFE740F40000ECE7FCF7C6FB401B0228FB
:103FB00001D903208DE720688000F5D5504688E7B9
:103FC0002844025870B504460068C168490614D4F4
:103FD0004FF0FF31C160FCF7AFFB4FF47A76054636
:103FE00007E000BFFCF7A8FB401BB04201D903204B
:103FF00070BD2068C0684006F4D5002070BD00B5D3
:104000001344D0F8B82202F58052126E934206D9BA
:104010002123052200F030FA4FF0FF3000BD0020D0
:1040200000BD00002DE9F04113780024232B70D04F
:104030000DDC1A2B6ED005DCEBB1032B39D0122B23
:1040400011D168E01B2B01D01E2B0CD18FE02A2B45
:1040500072D004DC252B70D0282B04D1ADE02F2B9F
:104060006CD05A2B6BD02023052200F005FA4FF0BC
:10407000FF30BDE8F081D0F8B87205460E4607F56E
:104080008050416921B12023417E05222846A1E0CC
:10409000D5F8BC0281683046884740B13A233146A2
:1040A0000222284600F0E8F9052038729EE07C8163
:1040B0009CE0D0F8B80200214B1C4518D9B2122957
:1040C0002C73F9D37021017300F580510C23C37454
:1040D00091F85C3091F85D50AB4213D000EBC30512
:1040E000A5F6C47505F500555B1CDBB22E78042BD4
:1040F00086736E7906762D79457681F85C3001D12C
:1041000081F85C4012214181117912296ED84181D8
:104110006CE04CE02FE05378DC07D0F8B8320FD0D9
:10412000334A07205881401E0004000C03EB0004B2
:10413000115C2173F7D159E042E03BE043E028E015
:10414000D0F8BC0201EBC1041179C06900EB840214
:104150001079401D814200D80846588104E0401E75
:1041600080B21C18115C21730028F8D13EE0D0F811
:10417000B80244813AE0D0F8B81208201D4A4881BC
:10418000401E0004000C01EB0004135C2373F7D104
:104190002CE0D0F8B8120820174A4881401E0004CD
:1041A000000C01EB0004135C2373F7D11EE000F058
:1041B0002CF91BE000F0FBF818E000F0AFF815E078
:1041C00000F07BF912E05278D0F8B852920704D58B
:1041D0002423052200F050F908E005F58052D2E9C9
:1041E0001923FFF70CFF002800DB6C81002040E75B
:1041F000AC7F0090B37F0090BB7F00902DE9F0472B
:10420000074688464FF48050D7F8B86206F58054C8
:10421000B4F85E10A56E4D43854200D30546626E2C
:10422000B5FBF1F006F10C01894683B2D7F8BC0268
:10423000D0F810C04046E047002809DA1123414673
:104240000422384600F018F94FF0FF30BDE8F0873F
:10425000ABB24A468121384601F089FEB4F85E00CF
:10426000636BB5FBF0F7B5FBF0F0D4E919125B1BFB
:1042700063633944101AC4E9191001D10320307264
:104280000020E3E72DE9F0478846D0F8B81207464A
:1042900001F580544FF48055B4F85E00A66E464395
:1042A000AE4200D32E46626EB6FBF0F00C3189466A
:1042B00083B2D7F8BC02D0F814C04046E0470028CB
:1042C00009DA032341460422384600F0D5F84FF0BE
:1042D000FF30BDE8F087B4F85E10D4E9193CB6FBB6
:1042E000F1F0B6FBF1F8626BA2EB060262630344E5
:1042F000BCEB0800C4E919300BD04843A84200D2F7
:1043000005464A46ABB23846012101F097FD002030
:10431000DFE700213846FFF7E5FAF8E72DE9F04737
:10432000D0F8B852074616468946287AA8BB05F544
:1043300080544FF0FF38207E00062AD5D7F8BC0203
:1043400081684846884730B13A23494602223846B8
:1043500000F092F811E0D6F80210707909BA21F055
:10436000FF02494602436266B6F8070043BA384680
:10437000A366FFF744FE002802DA4046BDE8F08756
:1043800002202872B4F85E10A06E62694843904221
:1043900004D02023617E0522D9E7FFE74FF4805047
:1043A000494668813846BDE8F047FFF727BF70B53A
:1043B00005460E4641F25E00D5E9AE412218304670
:1043C0004B6804F58351984740B13A2331460222A5
:1043D000284600F051F84FF0FF3070BD04F58051D1
:1043E0000022086E401E030E2373050C6573060A37
:1043F000A673E073227462740822B1F85E00010AA9
:10440000A174E0740020628170BD2DE9FC41054675
:104410000F4600263046D5F8B842411C221888B213
:104420000C281673F9D3D5F8BC0201A96A46436873
:104430003846984748B13A2339460222284600F0C8
:104440001BF84FF0FF30BDE8FC810820E0730198B5
:1044500002212175401E6675010E2174020C6274E2
:10446000030AA374E0740C22BDF800006281010A03
:10447000A175E0750020E6E710B5D0F8B81200236A
:1044800001F5805090F85D4001EBC40404F58054C0
:1044900084F83C2090F85D2001EBC20101F58051C9
:1044A00081F8403090F85D10491CC9B280F85D1069
:1044B000042901D180F85D3010BD2DE9F047D0F816
:1044C000B852064617468946287A20B13046BDE8DC
:1044D000F047FFF7D7BE05F580544FF0FF38207E38
:1044E000000631D4D6F8BC0281684846884728B116
:1044F0003A230AE03046FFF7BFFF1BE0D6F8BC02C4
:10450000C1684846884718B1272349460222F1E787
:10451000D7F80200797900BA20F0FF020A436266F8
:10452000B7F80700494643BA3046A366FFF767FD70
:10453000002802DA4046BDE8F087B4F85E20A16E9C
:1045400060695143884203D02023617E0522D1E770
:104550004FF48050814200D301468BB20120287273
:1045600005F10C020146304601F068FC0020E2E74C
:1045700010B5026840F26F335169946944F0080441
:1045800094610268946944F01004946102681468AC
:1045900024F001041460026814699C4314610268E9
:1045A000936823F44043936090F88120042A0CD050
:1045B0008A060AD5D0F8842042F08002C0F8842010
:1045C0000268936943F02003936190F88120032AE5
:1045D0000CD04A060AD5D0F8842042F00402C0F874
:1045E00084200268936943F0400393618A050AD5E9
:1045F000D0F8842042F00102C0F884200268936958
:1046000043F400739361C9050AD5D0F8841041F0D2
:104610000801C0F8841001688A6942F480728A61D6
:104620000021A0F86210A0F86A1010BD2DE9F04139
:10463000984616460D460746069C09E0FCF77CF8AE
:10464000A0EB0800A04202D3601C01D00BE054B1E3
:104650003868406935EA000007D00020B042EDD04C
:104660000020BDE8F0810320FBE70120F6E70020F1
:1046700070470000F8B504466A46002003468DF8EE
:10468000000004F120001321054603F06EFC0A210E
:104690000646204600F006FA00236A4628212846EE
:1046A00003F063FC064420460A2100F0FBF90023D6
:1046B0006A463621284603F058FC01460B488C19FF
:1046C0000B49027B806801EBC00000790AB940F019
:1046D0000800694601228DF80000284603F03EFCE0
:1046E000001901D04FF0FF30F8BD00004811002440
:1046F000A4010024F8B504466A46002003468DF85C
:10470000000004F120001321054603F02EFC0A21CD
:104710000646204600F0C6F900236A4629212846AD
:1047200003F023FC064420460A2100F0BBF90023D5
:104730006A463621284603F018FC01460B488C19BE
:104740000B49027B806801EBC00000790AB940F098
:104750000800694601228DF80000284603F0FEFBA0
:10476000001901D04FF0FF30F8BD000048110024BF
:10477000A40100242DE9FF4F93F8038093469C7811
:1047800083B0DF7A4FF0000993F80CC004EB0824E3
:10479000997ACA4693F80D80DE7C01EB07211F7DD4
:1047A0004FEA0C4C9A7C0CEB086893F815C08844CF
:1047B000DD7D3F0402EB06221E7E987D07EB0C6C2C
:1047C0005F7E6244360400EB05201D7906EB076628
:1047D0005F7930442D0405EB0767324D3C4403EB11
:1047E000080613466D680090A5EB0B05291AA4EB8B
:1047F000080B88460A46DDE9030100F07BFC4FF018
:10480000FF35E8BB274C284F207B0028A06817F80D
:10481000300001D140F008008DF804000398012316
:1048200036212030009001AA03F09FFB40BBDDE958
:104830000301424600F006FC10BB707802228DF89E
:10484000080002A930788DF80900009803F086FB73
:1048500008B1A94604E0B61C0AF1020ADA45ECD315
:10486000207B0028A06807EBC000007901D140F050
:1048700008008DF8040001230098362101AA00E009
:104880000BE003F072FB40B9606800220090114613
:104890002368039800F02EFC00B1A94607B04846F3
:1048A000BDE8F08F48110024A40100242DE9F04157
:1048B0001D46144B00248046069F48194FF0FF36D2
:1048C0001B68984219D8404600F0BCFBA8B90E49B5
:1048D0000020C7F30722FBB206E000BF01EB400750
:1048E00001F81020401C7B70A842F7D306496A00EB
:1048F00008F1200003F032FB00B134462046BDE849
:10490000F081000048110024C80E00242DE9F05F5A
:104910008A460F491E468346DDF8289090190025E7
:10492000174649684FF0FF38884208D8002409E04C
:104930003A194B465146584600F0A4FC08B145468A
:1049400002E0641CB442F3D32846BDE8F09F0000A7
:10495000481100242DE9FF5F1D481C4691468B46F7
:10496000DDE90E674FF0FF3A4FF0000803688A193F
:104970009A4204D8416809EB0700884201D9D04621
:1049800022E000251EE000BF009809EB0502594611
:1049900000F058FBA0B90F49002008E0227801F888
:1049A000102001EB40026378401CA41C5370B042FD
:1049B000F4D3009872000749203003F0CFFA00B119
:1049C000D0466D1CBD42DFD304B04046BDE8F09F29
:1049D00048110024480C00242DE9F84F0026994680
:1049E0008A468346DDE90A78144635460DE04B4693
:1049F000224651465846CDF80080FFF757FF10B1C8
:104A00004FF0FF3603E0641C6D1CBD42EFD330460F
:104A1000BDE8F88F4FF0FF30704700000248806813
:104A2000086000207047000048110024FEB51C46B5
:104A3000054600F007FB064605F120002E2105463D
:104A400002AA03F07DFA06442846012202A903F0D7
:104A50007EFA064469460122284603F078FA0644A5
:104A60002846012201A903F072FA9DF8042080195A
:104A70009DF8001001EB0221216001D04FF0FF30C2
:104A8000FEBD00000248006808600020704700007A
:104A90004811002402484068086000207047000068
:104AA0004811002470B50546C0690E46804704468B
:104AB000E8698047001BB042FAD3002070BD2DE9A1
:104AC000F74F5FEA000982B07DD04FF0000B6A46D5
:104AD00001215C4609F120005B468DF800B0019091
:104AE00003F043FA78214846FFF7DCFF01980023E2
:104AF00001216A468DF8004003F037FA7821054617
:104B00004846FFF7CFFF0198012311216A468DF82F
:104B1000004003F02AFA00236A46B12105440198B7
:104B200003F023FA46190198012569462A468DF8B3
:104B3000005003F013FA871901982C2669460122C8
:104B40008DF8006003F00AFA00EB07084FF02D0A19
:104B500001980122574669468DF800A003F0FEF93E
:104B600001236A46B2218DF800508044019803F079
:104B7000FCF901226946804401988DF8006003F039
:104B8000EDF901226946804401988DF8007003F028
:104B9000E5F901236A46B3218DF80050804401985D
:104BA00003F0E3F901226946804401988DF8006022
:104BB00003F0D4F901226946804401988DF8007011
:104BC00003F0CCF900E0CCE1012269468044019871
:104BD0008DF8005003F0C2F90122694600EB080588
:104BE00001988DF8006003F0B9F946190198012287
:104BF00069468DF8007003F0B1F907256A46012374
:104C00008DF80050B4210644019803F0AEF9A221BA
:104C10006A468719019801238DF80010C02103F01E
:104C2000A4F90226694601228DF800600744019824
:104C300003F094F984218DF800100122694607449D
:104C4000019803F08BF9C5216A4601238DF8001005
:104C5000C1210744019803F088F90A216A4601231B
:104C60008DF80010C2210744019803F07EF901225B
:104C70006946074401988DF8004003F06FF98A24D3
:104C80006A4601238DF80040C3210744019803F0D0
:104C90006CF92A218DF80010012269460744019819
:104CA00003F05CF901236A46C4218DF800400744F3
:104CB000019803F05AF9EE218DF80010C4190198FB
:104CC0000122694603F04AF90E216A4601238DF854
:104CD0000010C5210444019803F047F904990444E5
:104CE0004FF000036A46097B00297ED020210198FD
:104CF00003F03BF901233A210444019803AA03F08D
:104D000034F90123B046E0216A46044401988DF845
:104D1000006003F02AF91C218DF800100122694679
:104D20000444019803F01AF90122694604440198E9
:104D30008DF8005003F012F912218DF800100122B5
:104D400069460444019803F009F937218DF80010F1
:104D5000012269460444019803F000F932218DF8DC
:104D60000010012269460444019803F0F7F829264F
:104D7000694601228DF800600444019803F0EEF8C2
:104D800001226946044401988DF800A003F0E6F87A
:104D900001226946044401988DF8006003F0DEF8B2
:104DA00025218DF80010012269460444019803F082
:104DB000D5F82B218DF80010012269460444019892
:104DC00003F0CCF839218DF8001007190198012261
:104DD000694603F0C3F801225C460744019869461E
:104DE0008DF800B003F0BAF800E0BFE001218DF8C3
:104DF0000010074401980A46694603F0AFF8012203
:104E00004FF0030B0744019869468DF800B003F09A
:104E1000A5F80744694610208DF80000019801228A
:104E200003F09CF801236A46E1218DF800B00744A5
:104E3000019803F09AF8074469461D208DF8000098
:104E40000198012203F08AF801226946074401987B
:104E50008DF8005003F082F806218DF80010012231
:104E600069460744019803F079F82E256946012226
:104E70008DF800500744019803F070F80744694624
:104E80002C208DF800000198012203F067F8012220
:104E90006946074401988DF8006003F05FF8C61971
:104EA0000198012269468DF800A003F057F801220D
:104EB0006946064401988DF8005003F04FF801222E
:104EC0006946064401988DF8005003F047F83721F1
:104ED0008DF80010851901980122694603F03EF80B
:104EE0003F218DF80010012269460544019803F026
:104EF00035F801226946054401988DF8004003F019
:104F00002DF801226946054401988DF8004003F010
:104F100025F801226946054401988DF8008003F0C8
:104F20001DF810218DF800100122694605440198F2
:104F300003F014F801236A4613218DF8004005445C
:104F4000019803F012F84419019801236A462921B7
:104F500003F00BF804440499484600F047F900199F
:104F600001D04FF0FF3005B0BDE8F08F2121BEE643
:104F7000F8B520300E46DA216A46074602F0E0FF17
:104F80004FF0FF3408B12046F8BD6D463846DB21AE
:104F90006A1C02F0D5FF0028F5D1AA1C3846DC2196
:104FA00002F0CEFF0028EED1BDF801109DF80020E0
:104FB00049BA62F31F413160F8BD30B40C46036951
:104FC0002046114630BC184730B40C468369204651
:104FD000114630BC184700004FF0FF3210B5E0B169
:104FE0000B6803604C68002B44600C890481CC681A
:104FF000C4600C6904614C6944618C698461C9694D
:10500000C161074941620749016207498162074955
:10501000C0E90B1001D098470246104610BD0000B1
:10502000BB4F0090CD52009031500090C94F00907E
:1050300030B40C4643692046114630BC18474FF047
:10504000FF307047F8B51446294A0D46114693685B
:105050000A7B497B012B07D8012909D10AB11835F0
:1050600006E0641C1A3503E0012901D1E2B31834CB
:105070006A462030002306462A2102F076FF0746C2
:105080006946280A8DF800000122304602F066FFCA
:1050900007446946012230468DF8005002F05EFF59
:1050A000C5196A46002330462B2102F05EFF210A13
:1050B0008DF80010054469460122304602F04EFF8B
:1050C00005446946012230468DF8004002F046FF53
:1050D00044196A46002330462C2102F046FF00198D
:1050E00001D04FF0FF30F8BDFFE71A346D1CBFE769
:1050F000481100242DE9F84314463B4A0D461F464B
:105100001146DDF8209093680A7B497B012B07D874
:1051100001290AD10AB1183507E0641C1A3504E0E8
:10512000012902D1002A5CD018346A4620300023BD
:1051300080462A2102F019FF06466946280A8DF8A2
:1051400000000122404602F009FF064469460122A0
:1051500040468DF8005002F001FF3D4469466D1E47
:105160000644280A8DF800000122404602F0F6FEAF
:1051700006446946012240468DF8005002F0EEFEDA
:1051800085196A46002340462B2102F0EEFE210AD3
:105190008DF80010054469460122404602F0DEFE0B
:1051A00005446946012240468DF8004002F0D6FED3
:1051B0004C446946641E0544200A8DF80000012213
:1051C000404602F0CBFE05446946012240468DF878
:1051D000004002F0C3FE401901D04FF0FF30BDE89F
:1051E000F8831A346D1CA0E7481100242DE9FC4116
:1051F000224C50238F68A0220546487B80262FB181
:10520000012F03D001280BD068B10EE0012801D096
:1052100018B10AE0C4E9003207E0C4E9006204E022
:10522000C4E9002301E0C4E9002688680022A060E8
:10523000087B2073487B11466073606800902846A5
:105240002368FFF757FF217B06460D480029A16818
:1052500000EBC100007901D140F008008DF8040096
:105260000123362101AA05F1200002F07EFE8019FB
:1052700001D04FF0FF30BDE8FC8100004811002450
:10528000A4010024F8B506460F481F0A4FF6FF7424
:1052900004EA03234FF0FF353B43ADF800300368C9
:1052A00000248B420DD9406890420AD93046FFF75E
:1052B000C9FE30B90222694606F1200002F04EFE16
:1052C00000B12C462046F8BD48110024F0B4C66851
:1052D00014460D4621462846B446F0BC1A4660479F
:1052E000034803690B60808A10800020704700002B
:1052F000581100240020704700207047002070479C
:10530000002070472DE9F0411F4615460E46A0B912
:10531000DFF82C8000240EE0D8F814100A4601FBB8
:1053200005F00146304601F093FED8F81400641CE5
:10533000A4B26D1C0644BC42EED30020BDE8F0814F
:10534000581100242DE9F0410F460F4998461546A3
:105350000870A8B90D4E002410E07069684301F090
:10536000BDFD71690A4601FB05F00146384601F0B2
:10537000CBFE7069641CA4B26D1C07444445ECD399
:105380000020BDE8F08100007000002458110024C6
:105390007047FBF7D7B900002DE9F041CCB04C21A4
:1053A0002FA8FAF7AEFF202142A8FAF7AAFFBC21E6
:1053B0006846FAF7A6FF0220FBF79CFF2E492F480C
:1053C0000A6822F001020A6009680168002421F4D9
:1053D000404141F400410160016801F440414A91BB
:1053E00001688904FCD5264802250526016808279E
:1053F00009234FF0600821F0030CEA0301210CF1AE
:10540000020CC0F800C039A83895349180E86001DA
:105410003C952FA83D953E95CDE93F744194CDE94B
:105420002F32FCF7D3FD43AA3F214291032082E8AB
:1054300091000121469442A8479448944994FCF76E
:10544000D9FB104B0A210B966A020093CDE909188B
:105450001294D0021794CDE90E24219001131894D0
:105460006846CDE90C6510942C91FBF775FFFBF7AE
:105470006BFF4CB0BDE8F0812C040058184802586E
:105480002844025800304402214A30B521491468AA
:105490000020204B44F47004146010330A681E4D41
:1054A00042F001020A6018600A681A4B2A400A603A
:1054B00018331C1D251D174A186028322060131D43
:1054C00028601C1D251D10602A1D1860131D2060FA
:1054D0001C1D2860251D10601860206028600A6867
:1054E0000C4B0E4C22F4802260330A601860206856
:1054F0006FF30F00B0F1005F03D209490120C1F83A
:1055000008014FF0006002498039086030BD00009A
:1055100088ED00E0004402587FEDF6EA0010005CE0
:10552000008000512DE9F047274B4FF0804A274D6E
:1055300002689842264E274F274C09D0504507D085
:10554000A84205D0B04203D0B84201D0A04205D154
:10555000D1F804C022F070024CEA0202DFF87CC0ED
:10556000DFF87C809842DFF87C900FD050450DD05A
:10557000A8420BD0B04209D0B84207D0A04205D013
:10558000604503D0404501D0484503D1CD6822F4A1
:1055900040722A434D6922F080022A4302609842F9
:1055A0008A68C2620A68826207D0A04205D060455C
:1055B00003D0404501D0484501D10969016301216B
:1055C0004161BDE8F0870000000001400004004098
:1055D00000080040000C0040000401400040014071
:1055E000004401400048014010B5046A042301F062
:1055F0001F018B409C4304628A40016A114301628F
:1056000010BD00002DE9F04F026ADFF88880DFF856
:10561000889022F00102DFF884A0DFF884B0214FE7
:105620000262DFF884C0066A4268836926F00206D7
:105630000D68B8428C6803EA0C0323F0030344EAC4
:10564000060445EA030507D0404505D0484503D088
:10565000504501D0584505D1CB6824F008042343B8
:1056600023F00404B84207D0404505D0484503D094
:10567000504501D0584505D122F44076D1E9053294
:1056800033431A4342608561496841630462BDE85F
:10569000F08F000000040140004001400044014040
:1056A00000480140000001408FFFFEFFF0B5026A94
:1056B0001E4E1F4C22F01002DFF878E00262056AED
:1056C0004368826925F02005D1F808C0A0420F6820
:1056D00002EA060222F4407245EA0C1542EA072269
:1056E00001D0704506D1CE6825F0800545EA061543
:1056F00025F04005A0420AD0704508D00E4CA042CB
:1057000005D00E4CA04202D00D4CA04207D1D1E9E9
:10571000054623F4406343EA840343EA8603436077
:105720008261496881630562F0BD0000FF8FFFFE62
:1057300000000140000401400040014000440140DD
:1057400000480140F0B5026A1C4D1D4E22F48072E3
:10575000A8420262026A4368C76922F40072D1F863
:1057600008C00C6827F0730742EA0C2244EA0704D9
:1057700001D0B04206D1CF6822F4006242EA07228B
:1057800022F48062A8420AD0B04208D00D4DA8424F
:1057900005D00D4DA84202D00C4DA84207D1D1E949
:1057A000055623F4405343EA051343EA06134360C6
:1057B000C4614968C1630262F0BD0000000001409D
:1057C0000004014000400140004401400048014005
:1057D00070B5026A144B22F4805202629842036A46
:1057E0004268C46923F400538E680D6824F4E644CB
:1057F00043EA063344EA05240BD00C4DA84208D0F6
:105800000B4DA84205D00B4DA84202D00A4DA8422C
:1058100004D14D6922F4804242EA85124260C4619B
:1058200049680164036270BD00000140000401404A
:10583000004001400044014000480140F0B5026AC8
:1058400022F480320262134F056A4268446D25F4E7
:1058500000350E89B8420B6824F0700445EA06450D
:1058600043EA04030BD00C4CA04208D00B4CA042DE
:1058700005D00B4CA04202D00A4CA04204D14C6986
:1058800022F4803242EA042242604365496881651D
:105890000562F0BD000001400004014000400140ED
:1058A0000044014000480140F0B5026A22F4801231
:1058B0000262134F046A4268436D24F400140E8997
:1058C000B8420D6823F4E04344EA065443EA052352
:1058D0000BD00C4DA84208D00B4DA84205D00B4D63
:1058E000A84202D00A4DA84204D14D6922F40032E8
:1058F00042EA8522426043654968C1650462F0BDA1
:10590000000001400004014000400140004401400B
:105910000048014010B5D0F8B422526890470020EA
:1059200010BD13460A46002110B500F087FA00208A
:1059300010BD13460A46002110B500F018FB0020E8
:1059400010BD10B58021044600F0F6FA2046BDE8EF
:105950001040002100F0F0BA0521002310B51A46CE
:10596000C0F89412194600F069FA002010BD10B575
:10597000C2610223C0F89432134602620A46002133
:1059800000F0F5FA002010BD0421002310B51A46DE
:10599000C0F89412194600F0EAFA002010BD000089
:1059A00004A00A46024910B500F0E2F8004810BD14
:1059B000080600244D534320436F6E66696700005C
:1059C00012200880004870472000002404A00A46E6
:1059D000024910B500F0CCF8004810BD08060024BC
:1059E0004D534320496E7465726661636500000023
:1059F00004200880004870471C00002404A00A46C8
:105A0000024910B500F0B4F8004810BD08060024A3
:105A100053544D6963726F656C656374726F6E6920
:105A20006373000004A00A46024910B500F0A0F814
:105A3000004810BD0806002453544D3332204D61F8
:105A400073732053746F72616765000010B51A207C
:105A500008800B480A490830021F0968006814686A
:105A6000081809D007490822FDF726FC0549042239
:105A700020461031FDF720FC0248801E10BD0000BA
:105A800000E8F11F36000024F8B504460D4600205A
:105A9000ADF800004888010A082948D2DFE801F083
:105AA0004704091747473C45D4F8B012207C0A68E0
:105AB00019E0207C02260028D4F8B40205D0C16A7F
:105AC00068468847014646703EE0816AF8E7C0B202
:105AD00006282CD2DFE800F0030A1014181CD4F8B2
