:0200000490006A
:1000000030200224AD020090332D00908D29009005
:10001000312D0090C7030090A14200900000000025
:10002000000000000000000000000000393D0090CA
:100030004504009000000000352D00903B3D0090ED
:10004000C7020090C7020090C7020090C70200904C
:10005000C7020090C7020090C7020090C70200903C
:10006000C7020090C7020090C7020090C70200902C
:10007000C7020090C7020090C7020090C70200901C
:10008000C7020090C7020090C7020090C70200900C
:10009000C7020090C7020090C7020090C7020090FC
:1000A000C7020090C7020090C7020090C7020090EC
:1000B000C7020090C7020090C7020090C7020090DC
:1000C000C7020090C7020090C7020090C7020090CC
:1000D000C7020090C7020090C7020090C7020090BC
:1000E000C7020090C702009000000000C702009005
:1000F000C7020090C7020090C7020090C70200909C
:10010000C7020090C7020090C7020090C70200908B
:10011000C7020090C7020090C7020090C70200907B
:10012000C7020090C7020090C7020090C70200906B
:10013000C7020090C7020090C7020090C70200905B
:1001400000000000000000000000000000000000AF
:10015000C7020090C7020090C7020090C70200903B
:10016000C7020090C7020090C7020090C70200902B
:10017000C7020090C7020090C7020090C70200901B
:10018000C7020090C7020090C7020090C70200900B
:10019000C7020090C7020090C7020090C7020090FB
:1001A000C7020090C7020090C7020090C7020090EB
:1001B000C7020090C7020090C7020090C7020090DB
:1001C000C7020090C7020090C7020090C7020090CB
:1001D000C7020090C7020090C7020090C7020090BB
:1001E000C7020090C7020090C7020090C7020090AB
:1001F000C7020090C7020090C7020090C70200909B
:10020000C7020090C7020090C7020090C70200908A
:10021000C7020090C7020090C7020090C70200907A
:10022000C7020090C7020090C702009000000000C3
:10023000C7020090C702009000000000C7020090B3
:10024000C7020090C7020090C7020090C70200904A
:10025000C7020090C7020090C7020090C70200903A
:10026000C7020090C7020090C7020090C70200902A
:10027000C7020090C7020090C70200900000000073
:10028000C7020090C7020090C70200900000000063
:1002900000000000C7020090DFF80CD000F056F814
:1002A00000480047BD4E0190302002240648804798
:1002B00006480047FEE7FEE7FEE7FEE7FEE7FEE74B
:1002C000FEE7FEE7FEE7FEE7153E0090990200908C
:1002D000D2B201E000F8012B491EFBD27047002288
:1002E000F6E710B513460A4604461946FFF7F0FF35
:1002F000204610BD421C10F8011B0029FBD1801ABA
:10030000704710B5002200E0521C835C8C5CA34255
:1003100001D1002BF8D1D8B2E1B2401A10BD30B5EE
:1003200004460020034600E05B1C934203D2E05CDD
:10033000CD5C401BF8D030BD034611F8012B00F80E
:10034000012B002AF9D1184670470000064C074DD2
:1003500006E0E06840F0010394E807009847103495
:10036000AC42F6D3FFF79CFFB8330290D83302902B
:1003700070B58C1810F8015B15F0070301D110F867
:10038000013B2A1106D110F8012B03E010F8016B94
:1003900001F8016B5B1EF9D12B0705D40023521E17
:1003A0000DD401F8013BFAE710F8013BCB1A921C7F
:1003B00003E013F8015B01F8015B521EF9D5A1427D
:1003C000D8D3002070BDFEE7F0B5BFF34F8FBFF369
:1003D0006F8F1A4900200860BFF34F8FBFF36F8FF4
:1003E000174A116841F400311160BFF34F8FBFF31A
:1003F0006F8F134970310860BFF34F8F081F43F6AA
:10040000FF7400680D4D1035C0F34E31C0F3C903C1
:1004100004EA4116184600BF46EA80772F60401E66
:10042000FAD2491EF4D2BFF34F8F106840F48030E7
:100430001060BFF34F8FBFF36F8FF0BD50EF00E040
:1004400014ED00E07047704770B5044600F032F9D3
:100450000546601C02D004480078044400F02AF9E4
:10046000401BA042FAD370BD940000242DE9FC4F3C
:1004700001257E4C00234FF0030A4FF0B04E4FF0A1
:100480000F0BEBE005FA03F637403A0077D04F68E0
:10049000012F05D0022F03D0112F01D0122F1AD116
:1004A00087684FEA4308D1F80CC00AFA08F927EA2E
:1004B00009070CFA08FC4CEA070CC0F808C04768AA
:1004C00091F804C0B743CCF3001C0CFA03FC4CEACF
:1004D000070CC0F804C0C6684FEA430CD1F8088086
:1004E000E1460AFA0CF7BE43019708FA09F848EA10
:1004F0000608C0F80C804E68022E01D0122E12D1D0
:10050000DE084FEA437C00EB860600960F69366AE8
:100510004FEADC6C0BFA0CF807FA0CF726EA08062F
:100520003743009E37620E790768DDF804C006F095
:10053000030606FA09F627EA0C073E4306604E68F2
:10054000F6001CD54A4E376847F002073760366818
:100550009F0706F00206009623F0030606F1B04658
:10056000B1463F0FD6F80864DFF808810BFA07FCA4
:10057000404526EA0C0603D14FF0000C41E06CE048
:10058000DFF8F4C0604502D14FF0010C39E0DFF82C
:10059000ECC0604502D14FF0020C32E0DFF8E0C061
:1005A000604502D14FF0030C2BE0DFF8D8C0604566
:1005B00002D14FF0040C24E0DFF8CCC0604502D13A
:1005C0004FF0050C1DE0DFF8C4C0604502D14FF0CC
:1005D000060C16E0DFF8B8C0604502D14FF0070CFA
:1005E0000FE0DFF8B0C0604502D14FF0080C08E022
:1005F000DFF8A4C0604502D14FF0090C01E04FF0D4
:100600000A0C0CFA07FC4CEA060CC9F808C4266868
:100610004F6826EA0206FF0300D516432660666887
:100620004F6826EA0206BF0300D516436660D1F87C
:1006300004C07646DEF800705FEACC2C27EA020799
:1006400000D517433760D1F804C077685FEA8C2C77
:1006500027EA020700D5174377605B1C0A68174634
:10066000DA407FF40FAFBDE8FC8F00008000005837
:10067000F4440258000002580004025800080258CE
:10068000000C0258001002580014025800180258BA
:10069000001C025800200258002402580AB181614F
:1006A00070470904FBE7000001480068000C704730
:1006B0000010005C0148806870470000940000242E
:1006C00002488168027811448160704794000024D8
:1006D000032010B500F0C6F800F084FE0F4A104960
:1006E00014681368C4F3032203F00F038A5CC95C27
:1006F00002F01F0201F01F01D0400A4A20FA01F166
:10070000116009490860002000F010F808B10120CC
:1007100010BD00F079F8002010BD00001844025808
:10072000B87B0190A4000024A000002470B50D4DFA
:1007300004462878A0B14FF47A71B1FBF0F00A4971
:100740000968B1FBF0F001F068FF48B9102C07D23E
:1007500000222146501E00F065F800206C6070BD3C
:10076000012070BD94000024A0000024F0B5154CB9
:100770004378211D0A1D23600378F3B143680B60A1
:10078000057BC67A817A437B2D07847B45EA066523
:10079000C77B90F809C0067A90F800E045EAC140AE
:1007A00040EA834040EA444040EA074040EA0C20E7
:1007B00040EA460040EA0E0001E0002008601060B8
:1007C000F0BD000098ED00E0BFF35F8F044800210A
:1007D0000368034A23F4803303607032116070476A
:1007E00024ED00E0074A40F0010006497032106035
:1007F000086840F480300860BFF34F8FBFF36F8FFD
:100800007047000024ED00E0054808B5016841F09C
:1008100002010160006800F00200009008BD0000C5
:10082000F44402580E4BF0B41B680D46C3F3022388
:10083000C3F10706042E00D90426191D072901D289
:10084000002300E0DB1E012404FA06F19C40491E4F
:100850002940641E994014402143F0BC03F021BD9F
:100860000CED00E0064900F0070210B54FF6FF045A
:100870000868044B204040EA02201843086010BD7D
:100880000CED00E00000FA05134970B50A68D24388
:10089000520705D5096801F00701814213D118E01C
:1008A0000A6822F0070202430A60FFF703FF0A4DBD
:1008B0004FF47A760446083D07E000BFFFF7FAFEE2
:1008C000001BB04201D9012070BD2868C0438004DC
:1008D000F4D4002070BD00000C48025802480168A2
:1008E00041F4807101607047004802582DE9FC5FB7
:1008F000044650F8241B002500902E460801FE4FA8
:10090000DFF8F8831DD5606E50B1B0F5801F0CD0B4
:10091000B0F5001F0ED0B0F5401F1DD001250FE02F
:10092000386840F40030386016E00221201D02F0E3
:1009300003FA03E00098022102F08EFA05000BD0C2
:100940002E462088C00523D5606D05281ED2DFE81D
:1009500000F00C11161B1B00626ED8F8001021F479
:1009600040111143C8F80010EBE7386840F400303C
:10097000386009E00021201D02F0DEF903E0009854
:10098000002102F069FA05466DB100E001252E460E
:100990002088800528D5A06D80281ED00CDC90B161
:1009A00040280ED114E0626DD8F8001021F0070144
:1009B0001143C8F80010EBE7C02813D0B0F5807FD2
:1009C00010D001250FE0386840F40030386009E0AD
:1009D0000021201D02F0B0F903E00098002102F090
:1009E0003BFA054695B12E462088DFF81093400566
:1009F00009F108092CD5D4F8A400B0F5800F20D057
:100A00000DDCA0B1B0F5001F0FD115E0A26DD8F834
:100A1000001021F4E0711143C8F80010E4E7B0F5CC
:100A2000C00F13D0B0F5000F10D001250FE03868CB
:100A300040F40030386009E00021201D02F07CF90C
:100A400003E00098002102F007FA054675B12E4632
:100A5000208800052DD5D4F8A800B0F1007F21D062
:100A60000EDCA8B1B0F1807F10D116E0D4F8A4203C
:100A7000D9F8001021F460011143C9F80010E7E72C
:100A8000B0F1407F13D0B0F1806F10D001250FE09E
:100A9000386840F40030386009E00021201D02F081
:100AA0004BF903E00098002102F0D6F905468DB11C
:100AB0002E462068DFF844B28001ABF1040B1FD54D
:100AC000A06CD8B110280FD0202812D0302815D013
:100AD000012514E0D4F8A820D9F8001021F0E06135
:100AE0001143C9F80010E4E7386840F4003038607A
:100AF00004E00221201D02F01FF905466DB12E46CB
:100B00002088C0042BD5E06DB0F5005F20D00DDC4F
:100B1000A0B1B0F5805F0FD115E0A26CDBF800103A
:100B200021F030011143CBF80010E9E7B0F5405F48
:100B300013D0B0F5804F10D001250FE0386840F495
:100B40000030386009E00021201D02F0F5F803E0D4
:100B50000098002102F080F9054685B12E462088D4
:100B6000800429D5206EB0F5403F23D010DC08B3B7
:100B7000B0F5803F14D0B0F5003F0FD115E0E26D25
:100B8000D8F8001021F4E0411143C8F80010E6E75E
:100B9000B0F5802F0ED0B0F5A02F0BD001250AE0C4
:100BA0000121201D02F0C8F803E00098012102F0A5
:100BB00053F905468DB12E46208840042AD5D4F835
:100BC000AC00B0F1405F23D010DC08B3B0F1805F1F
:100BD00014D0B0F1005F0FD115E0226ED8F80010EC
:100BE00021F4E0211143C8F80010E5E7B0F1804F8F
:100BF0000ED0B0F1A04F0BD001250AE00121201D3D
:100C000002F09AF803E00098012102F025F9054668
:100C10006DB12E46208800041FD5E06ED8B1B0F12A
:100C2000805F0ED0B0F1005F10D0012514E0D4F841
:100C3000AC20D9F8001021F0E0411143C9F80010B0
:100C4000E8E7386840F40030386004E00121201DF6
:100C500002F072F805466DB12E462068C0011ED51F
:100C6000606CD0B101280ED0022811D0032814D016
:100C7000012513E0E26ED8F8001021F04051114335
:100C8000C8F80010E9E7386840F40030386004E044
:100C90000221201D02F050F8054665B12E4620685D
:100CA000400257D51648016841F480710160FFF792
:100CB00001FD82460EE0626CDBF8001021F00301BA
:100CC0001143CBF80010EAE7FFF7F4FCA0EB0A00B1
:100CD00064283DD80A480068C005F5D57DBBDFF81B
:100CE0001CA0B4F8B0100AF1200ADAF8000001F4F0
:100CF000407100F4407005E02C4402585044025802
:100D000000480258884211D0DAF80010DAF80020C2
:100D100021F4407142F48032CAF80020DAF8002051
:100D200022F48032CAF80020CAF80010D4F8B000CB
:100D3000B0F5807F21D1FFF7BDFC019019E008E0FC
:100D4000FFF7B8FC0199411A41F28830814210D96D
:100D500003252E462078DFF80CA4C0073DD0A06FF5
:100D6000182838D026DC80B3082829D0102825D1AF
:100D70002CE0DAF800008007E2D5D4F8B010C1F317
:100D800001200328F8480DD0016821F47C5101604E
:100D9000B4F8B020DAF80010C2F30B021143CAF81D
:100DA0000010D7E7F14A036802EA111223F47C51DC
:100DB0001143ECE720280ED028280CD001250BE0A9
:100DC0000121201D01F0B8FF04E004E0009801219A
:100DD00002F042F805465DB12E46207880071ED508
:100DE000606F062819D2DFE800F0160C11161616EF
:100DF000A26FDAF8001021F038011143CAF8001090
:100E0000EBE70121201D01F097FF03E0009801218D
:100E100002F022F8054675B100E001252E46207843
:100E200040071FD5D4F89000062819D2DFE800F05B
:100E3000160C11161616626FDAF8001021F0070171
:100E40001143CAF80010EAE70121201D01F074FFE8
:100E500003E00098012101F0FFFF05469DB100E08D
:100E600001252E46207880062BD5D4F88C00B0F1D1
:100E7000405F24D011DC10B3B0F1805F15D0B0F129
:100E8000005F10D116E0D4F89020D9F8001021F0BE
:100E900007011143C9F80010E4E7B0F1804F0ED00C
:100EA000B0F1A04F0BD001250AE00021201D01F078
:100EB00043FF03E00098022101F0CEFF05468DB10B
:100EC0002E46207840062BD5D4F89800B0F5406F18
:100ED00024D011DC10B3B0F5806F15D0B0F5006FE1
:100EE00010D116E0D4F88C20DAF8001021F0E0419F
:100EF0001143CAF80010E4E7B0F5805F0ED0B0F5FA
:100F0000A05F0BD001250AE00021201D01F014FF95
:100F100003E00098022101F09FFF05468DB12E46A7
:100F2000207800062BD5D4F89C00B0F5C04F24D013
:100F300011DC10B3B0F5005F15D0B0F5804F10D1C3
:100F400016E0D4F89820D9F8001021F4E0511143AC
:100F5000C9F80010E4E7B0F5004F0ED0B0F5204F0F
:100F60000BD001250AE00021201D01F0E5FE03E081
:100F70000098022101F070FF05464DB12E46207801
:100F800000071ED5D4F88000B0F5805F0AD00FE0CE
:100F9000D4F89C20D9F8001021F460411143C9F81D
:100FA0000010ECE70098022101F056FF00B1012685
:100FB000D4F88020DAF8001021F440511143CAF827
:100FC00000102078C00613D5D4F89400B0F5807FC7
:100FD00005D10098022101F03FFF00B10126D4F8AD
:100FE0009420D9F8001021F440711143C9F8001081
:100FF0002068000316D5D4F8A00038B1B0F5803FC2
:1010000009D0B0F5003F0BD001250AE00021201DDA
:1010100001F092FE03E00098022101F01DFF054659
:1010200085B12E462068400322D5D4F88400B0F55F
:10103000801F11D0B0F5001F13D0B0F5401F15D0A0
:10104000012514E0D4F8A020D9F8001021F4403193
:101050001143C9F80010E5E7386840F40030386003
:1010600004E00098012101F0F7FE054655B12E4637
:101070002068C0031CD5E06C70B1B0F5803F10D083
:10108000012514E0D4F88420DAF8001021F440118E
:101090001143CAF80010EBE7386840F400303860BC
:1010A00004E00221201D01F047FE0546CDB12E4689
:1010B0002068800005D50098022101F0CDFE00B126
:1010C0000126206880031BD5E06FB8B1B0F5807FA2
:1010D00010D0B0F5007F11D0B0F5407F0ED00125C3
:1010E0000DE0E26CDBF8001021F480311143CBF805
:1010F0000010DDE7386840F400303860C5B32E4694
:101100002068C00207D5226FD8F8001021F00041F6
:101110001143C8F800102068800207D5A26ED8F8E5
:10112000001021F080711143C8F8001020684000C1
:1011300009D50D48016821F4004101600168D4F827
:10114000B820114301602068002807DA226DDBF81F
:10115000001021F040511143CBF8001096B101204E
:10116000BDE8FC9F5444025810440258CFFFFF00D2
:10117000FFE7E26FDAF8001021F440711143CAF87A
:101180000010BDE70020EBE72DE9F05F04000F46FB
:101190007ED0DFF83882D8F8000000F00F00B842A7
:1011A0000CD2D8F8001021F00F013943C8F8001014
:1011B000D8F8000000F00F00B84269D12078844DC3
:1011C00040070AD52069296801F07001884204D9D6
:1011D000296821F070010143296020787C4E361D7A
:1011E00000070AD56069316801F07001884204D9AE
:1011F000316821F07001014331602078C0060AD5C2
:10120000A069316801F4E061884204D9316821F4B1
:10121000E061014331602078DFF8B4B180060BF162
:10122000080B0CD5E1695846DBF8002002F070028B
:10123000914204D9026822F070020A4302602078C9
:1012400080070AD5E068296801F00F01884204D9B7
:10125000296821F00F01014329602078C0073ED0A2
:101260005B49A2682868183920F470601043286030
:101270006068022818D0032819D00968012819D0FD
:10128000490700294ADADFF848A1AAF1080A00E074
:1012900044E0DAF8002022F007020243CAF80020F6
:1012A000FFF708FA814612E009688903E9E709684F
:1012B0008901E6E7C905E4E7FFF7FCF9A0EB0901BE
:1012C00041F28830814202D90320BDE8F09F616875
:1012D000DAF8000000F03800B0EBC10FECD1207854
:1012E00080070AD5E068296801F00F01884204D21E
:1012F000296821F00F0101432960D8F80010404609
:1013000001F00F01B9420BD9016821F00F013943F7
:101310000160006800F00F00B84201D00120D4E75E
:10132000207840070AD52069296801F070018842B9
:1013300004D2296821F07001014329602078000758
:101340000AD56069316801F07001884204D23168C1
:1013500021F07001014331602078C0060AD5A069F0
:10136000316801F4E061884204D2316821F4E0611F
:1013700001433160207880060CD5E1695846DBF8DE
:10138000002002F07002914204D2026822F0700242
:101390000A43026000F026F80E492A682B68C2F35F
:1013A000032203F00F038A5CC95C02F01F0201F004
:1013B0001F01D040084A20FA01F111600749086076
:1013C00007480068BDE8F05FFFF7B0B900200052A1
:1013D00018440258B87B0190A4000024A000002407
:1013E00098000024454970B545480968434B103BB7
:1013F00011F0380208D00111082A03D0102A0BD0AE
:10140000182A0BD0084670BD19688906FBD51968E3
:10141000C1F3C101C84070BD3A4870BD3749374D6E
:1014200018310C1D24350A68096826682D6802F0F9
:10143000030406F00102C1F30511C5F3CC0515FB49
:1014400002F200EE102AB8EE400AE9B32F4ADFEDAF
:101450002E0AB7EE001A6CB1DFED2D1A012C01D067
:10146000022C43D002EE101A1068F8EE422A81EEE8
:10147000A22A1EE01C68A40611D51B6801EE901A72
:101480001168C3F3C103F8EE612AD84001EE900A57
:10149000C1F30800F8EE611A81EEA22A0BE001EE1A
:1014A000901ADFED1C2A00BFF8EE611A106882EE78
:1014B000A12AC0F3080001EE900AF8EE611A40EE8E
:1014C000201A31EE810A00E015E022EE000A1068D1
:1014D000C0F34620401C00EE900AF8EE600A80EE51
:1014E000201ABCEEC10A10EE100A70BD01EE901A6F
:1014F000DFED092AD8E7002070BD00001044025833
:101500000090D00340787D0100000039304402583B
:101510000024744A0024744C20BCBE4B2DE9F05FBB
:1015200004007CD0FF4F2078FE4D1837DFF8F4938D
:10153000103DC00748D0D9F80000396800F03800E5
:10154000102815D0182803D101F0030002280FD06D
:101550006068B0F5803F12D010B1B0F5A02F18D060
:10156000286820F480302860286820F4802009E072
:101570002868800328D560680028D2D024E0286835
:1015800040F480302860606888B1FFF793F8064621
:1015900009E0286840F480202860F0E7FFF78AF827
:1015A000801B64287ED828688003F7D50CE0FFF7FD
:1015B00081F8064605E000BFFFF77CF8801B642831
:1015C000F0D828688003F7D4207841F20308D54E7C
:1015D0000C3E80074BD5D9F80000396810F0380070
:1015E0000ED0182801D188070AD0E06868B32968AE
:1015F00021F0190101432960FFF75CF8824619E0E8
:101600002868400702D5E06800288AD0FFF74CF828
:10161000404513D82069316821F47C3100E0BEE0F8
:1016200041EA0030306022E0FFF744F8A0EB0A0006
:101630000228B7D828684007F6D5E7E7207C31684C
:1016400021F0FE4141EA0060ECE7286820F001004B
:101650002860FFF72FF8824606E000BFFFF72AF860
:10166000A0EB0A0002289DD828684007F6D420780D
:10167000C00659D5D9F80000DFF8A8B2396800F0E3
:101680003800ABF1040B082812D0182803D101F060
:10169000030001280CD0E0690028286834D040F00D
:1016A000800000E0DCE02860FFF704F8824623E0D9
:1016B0002868C00523D5E069802870D11FE000BFED
:1016C00094F82000316821F0F84141EA80603060F0
:1016D0002AE000BF94F82010DBF8002022F07C52B2
:1016E00042EA0161CBF800101EE000BFFEF7E2FF06
:1016F000A0EB0A0002289CD82868C005F6D5FEF7A2
:10170000D3FF4045E6D8DBE720F080002860FEF7F5
:10171000D1FF064605E000BFFEF7CCFF801B022884
:1017200087D82868C005F7D42078000729D57D48D8
:101730006169643000298046016811D041F00101DF
:101740000160FEF7B7FF064605E000BFFEF7B2FFF7
:10175000801B022887D8D8F800008007F6D510E053
:1017600021F001010160FEF7A5FF064605E000BF7C
:10177000FEF7A0FF801B022872D8D8F8000080076F
:10178000F6D42078800623D5A0690028286810D0D8
:1017900040F480502860FEF78DFF064605E02EE1FC
:1017A000FEF788FF801B02285AD828688004F7D5E6
:1017B0000EE020F480502860FEF77CFF064604E02F
:1017C000FEF778FF801B02284AD828688004F7D4E7
:1017D000207840074FD5DFF85081D8F8001041F449
:1017E0008071C8F80010FEF765FF064605E000BFEF
:1017F000FEF760FF801B642832D8D8F80000C005CF
:10180000F6D5484EA068603601280AD008B10528F0
:1018100013D0306820F001003060306820F0040000
:1018200002E0306840F001003060A06841F2883A80
:1018300090B1FEF73FFF80460AE0306840F00400B8
:101840003060EEE7FEF736FFA0EB0801514507D800
:1018500030688007F6D50EE0FEF72CFF804607E0E3
:1018600084E000BFFEF726FFA0EB080151457DD8BC
:1018700030688007F6D4606AF0B3DFF8A880D9F842
:10188000001008F12008C1F3C20103296FD002281B
:10189000286820F08070286003D0FEF70BFF044614
:1018A00082E0FEF707FF064605E000BFFEF702FFF5
:1018B000801B022875D828688001F7D4E26A40F2BC
:1018C000F331386854F8283F884340EA021018433F
:1018D0003860217B4FF4FE0C22894FF0FE47208AAE
:1018E0004902267D521E401EA1F5007189B20CEA04
:1018F0000040C2F3080200E083E01143761E01437A
:10190000084807EA06621143064A1C30C8F800106E
:101910002432016821F00101016011684FF6F87668
:10192000B14303E01044025800480258236A41EAD8
:10193000C30111600168A26921F00C01114301602B
:101940000168E26921F0020111430160016841F47C
:1019500080310160016841F400310160016841F4A7
:1019600080210160016841F0010101E019E01FE000
:101970000160286840F080702860FEF79BFE0446F6
:1019800005E000BFFEF796FE001B022809D8286874
:101990008001F7D535E000BFFEF78CFE001B022862
:1019A00002D90320BDE8F09F28688001F4D428E024
:1019B00039680128D8F8000021D0A26A01F0030399
:1019C00093421CD1E26AC1F305118A4217D1216BFF
:1019D000C0F30802491E8A4211D1616BC0F346224E
:1019E000491E91420BD1A16BC0F30642491E9142A0
:1019F00005D1E16BC0F30660491E814201D0012090
:101A0000D0E70020CEE70068503050F82100704742
:101A10000068503040F82120704700002DE9F04167
:101A200004004FF0010554D094F82100002528B996
:101A3000002084F82000204600F050F8022184F8AD
:101A40002110CA202268532150622068416220463A
:101A500001F09EFA4FF0FF064FF0040710BB20681C
:101A60001D4A816811408160D4E90013D4F818C080
:101A70002269886842EA0C02184310438860226891
:101A80002189E06840EA014010612068C16821F0C6
:101A90008001C16020688068800609D4204600F07B
:101AA00011F928B120680125466284F8217010E000
:101AB00020680122C16C21F00301C16421686369BF
:101AC000E069CF6C18433843C8642068466284F8E4
:101AD00021202846BDE8F081BFFF8FFF0068044940
:101AE000884204D10348016841F400410160704715
:101AF00000400058704402582DE9F047044690F821
:101B000020000B46012822D04FF0010984F82090D4
:101B1000022184F82110EAB159789878DA781B7894
:101B2000090240EA024541EA433005432268CA21DE
:101B30005320516221684862204601F029FA4FF093
:101B400000064FF0FF074FF0040860BB1AE00220C8
:101B5000BDE8F0875878C10603D500F0EF000A30E1
:101B60005870D87801F008FA0204587801F004FAA5
:101B700042EA0022987801F0FFF91978024342EA1C
:101B80004135D3E72168104805404D602068C168A1
:101B900021F08001C1602068806880060BD4204657
:101BA00000F090F838B121684F6284F8218001205C
:101BB00084F82060CCE721684F6284F821900020EF
:101BC00084F82060C4E700003FFFFF002DE9F047E4
:101BD000044690F8200092460D46012817D00222B4
:101BE0004FF0010984F82090CA2184F82120532065
:101BF0002268516221684862204601F0C9F94FF01D
:101C0000FF074FF004084FF00006A8BB02E00220D7
:101C1000BDE8F0872068BAF1000F80684FEA4060A5
:101C200032D0002800DBEE7068782A78A978EB784B
:101C30004FEA002C41EA02404CEA835108432268F3
:101C40001F49084010602068816821F4802181606C
:101C50002168D5E903028B68104318438860206827
:101C6000C16821F08001C1602068806880061FD4AF
:101C7000204600F027F8D8B121684F6284F821800F
:101C8000012084F82060C3E7002800DBEE7028788C
:101C900001F072F90204687801F06EF942EA00225C
:101CA000A87801F069F9E978024342EA8150C6E771
:101CB00021684F6284F82190002084F82060A7E713
:101CC0007F7F7F0070B504460068C16821F0A001E5
:101CD000C160FEF7EFFC4FF47A76054607E000BFDF
:101CE000FEF7E8FC401BB04201D9032070BD20681C
:101CF000C0688006F4D5002070BD00002DE9F047D3
:101D0000040029D04A4A4FF000092068494B4A4D47
:101D10009042C4F8289006D0984204D0A84202D03D
:101D2000E1680F2918D8E1684FF0010AE76B083124
:101D3000C9080AEB57167143904205D0984203D068
:101D4000A84201D0082907D8904203D0984201D078
:101D5000A84204D1102902D90120BDE8F08794F8E7
:101D6000810020B9204684F8809000F067F80220B6
:101D700084F881002068016821F001010160A069F8
:101D8000B0F1806F0AD16068B0F5800F06D1A06B0A
:101D900020B92068016841F480510160A56AE069BA
:101DA0002368E16B2843E268084310439860D4E954
:101DB0000D02D4E905C1636A25691843D4F820806F
:101DC0000A43266810432843A56DD4E90172D4E97B
:101DD000123140EA0C0040EA08003843084310433F
:101DE00018432843F060606868B92068816821F46E
:101DF000C05141F4006181602068816821F4C061B4
:101E000041F4806181602068016D21F0010101656C
:101E10006068400206D52068626DC16821F000410B
:101E20001143C160C4F8849084F881A0002094E735
:101E30000030014000380040003C004010B586B042
:101E4000044614216846FEF74AFA1349206888427E
:101E500020D11248016841F400510160006800F48B
:101E6000005005900D481038016841F010010160E4
:101E7000006800224FF4A04100F0100005900220FD
:101E800005230493CDE90010CDE9022004486946FA
:101E9000FEF7ECFA06B010BD00340140F0440258E1
:101EA000001002582DE9F84F0F46416804461D46C0
:101EB00000201646B1F5800F4FF0040B009001D1C1
:101EC000A06888B194F88000012818D04FF001096B
:101ED00084F88090FEF7EEFB94F881108246002093
:101EE00001290ED0022125E084F881B0204600931C
:101EF00013463A46114600F0FFF9BDE8F88F02207C
:101F0000FBE7B7B1AEB1A26880466766A4F8686027
:101F100084F881B0C4F88400A4F86A60E065A4F88D
:101F20006000A4F86200B2F5C02F2067606705D09A
:101F300009E0012184F880000846DEE72068016896
:101F400021F400610160206841686FF30F013143A3
:101F500041602068016841F0010101606068B0F5EE
:101F6000800F04D12068016841F400710160E068CD
:101F70000F282ED948F20806B4F86A00002858D075
:101F80002068416931420BD0006B616E0860606E61
:101F9000001D6066B4F86A00401EA4F86A00EBE712
:101FA000FEF788FBA0EB0A00A84202D3681CE3D02E
:101FB00001E0002DE0D1204601F007F8D4F884209C
:101FC00084F8808042F48071C4F8841084F8819091
:101FD00078E0072829D867E02068416911F4604F4C
:101FE00018D04169090409D5006B616E0860606E04
:101FF000001D6066B4F86A00801E08E0008E616E05
:102000000880606E801C6066B4F86A00401EA4F808
:102010006A000AE0FEF74EFBA0EB0A00A84202D3DA
:10202000681C02D0C7E7002DC5D0B4F86A000028AC
:10203000D2D13DE02068416911F4604F29D0416957
:10204000090409D5006B616E0860606E001D606652
:10205000B4F86A00001F19E0416901F4C041B1F50C
:10206000005F09D9008E616E0880606E801C60661A
:10207000B4F86A00801E09E090F83000616E0870C4
:10208000606E401C6066B4F86A00401EA4F86A00E6
:102090000AE0FEF70FFBA0EB0A00A84202D3681C7F
:1020A00002D088E7002D86D0B4F86A000028C1D19C
:1020B000204600F08AFF84F88190D4F8841084F8D8
:1020C000808009B1012018E7009816E72DE9F84F44
:1020D0008A4690F880101D461746012904464FF0A5
:1020E000000B0DD04FF0010884F88080FEF7E2FA73
:1020F000814694F881000026012804D002201EE0C9
:102100000220BDE8F88FBAF1000F17D0B7B1A1686F
:102110000320C4F85CA0A4F8607084F88100C4F8BF
:102120008460A4F862706666A4F86860A4F86A60C7
:10213000B1F5C02F6667266704D008E0012084F857
:102140008060DEE72068016841F40061016020687A
:1021500041686FF30F01394341602068016841F025
:10216000010101606068B0F5800F04D1206801684A
:1021700041F400710160E0680F281AD82CE0206853
:10218000416989070BD5E16D09680162E06D001DA9
:10219000E065B4F86200401EA4F8620009E0FEF7B2
:1021A00089FAA0EB0900A84202D3681C01D005E01F
:1021B00025B1B4F862000028E1D181E0204600F0AA
:1021C00004FFD4F8841084F8806041F48071C4F86E
:1021D000841084F881808BE007282BD86CE020687D
:1021E000416989071BD5B4F8621001290BD9E16B4D
:1021F00049B1E16D09680162E06D001DE065B4F868
:102200006200801E08E0E16D09880184E06D801C99
:10221000E065B4F86200401EA4F862000AE0FEF730
:1022200049FAA0EB0900A84202D3681C02D0C5E716
:10223000002DC3D0B4F862000028D0D140E020685F
:10224000416989072DD5B4F8621003290CD9E16BD7
:10225000402909D9E16D09680162E06D001DE06562
:10226000B4F86200001F19E0B4F8621001290BD91C
:10227000E16B49B1E16D09880184E06D801CE06586
:10228000B4F86200801E09E0E16D097880F8201042
:10229000E06D401CE065B4F86200401EA4F86200E6
:1022A0000AE0FEF707FAA0EB0900A84202D3681C77
:1022B00002D083E7002D81D0B4F862000028BED19F
:1022C00000224B4608212046009500F0DCFE28B194
:1022D000D4F8840040F02000C4F88400204600F0C8
:1022E00074FE84F88180D4F8840084F8806008B19A
:1022F000012006E7584604E72DE9FF4F83B090F828
:10230000801004461D4600209346109F012901902D
:1023100014D04FF0010A84F880A0FEF7CBF9804674
:1023200094F881006368002101282E464FF4800252
:102330000CD0934208D1A36833B903E0022007B060
:10234000BDE8F08F042801D0022037E0049898B34C
:10235000BBF1000F31D07DB394F88100042802D086
:10236000052084F8810089460846C4F88410C4F822
:1023700064B0A4F86A50A4F868500499E165A4F820
:102380006250A4F8605020676067206841686FF36E
:102390000F01294341602068016841F0010101609B
:1023A0006068904204D12068016841F400710160C6
:1023B000E0680F282BD846E0FFE7012084F8801062
:1023C000BDE72068416989070DD565B1E16D0968F0
:1023D0000162E06D001DE065B4F86200401EA4F8E3
:1023E0006200B4F8625048F2080220684169114264
:1023F0000DD066B1006B616E0860606E001D606696
:10240000B4F86A00401EA4F86A00B4F86A6055EA9D
:102410000600D6D1FEF74EF9A0EB0800B84202D371
:10242000781C02D1DDE0002F5DD1204600F0CDFD0B
:10243000D4F8842084F8809042F48070C4F884003A
:1024400084F881A0E5E007284AD8C7E02068416900
:1024500089071BD5D5B1012D0BD9E16B49B1E16DD0
:1024600009680162E06D001DE065B4F86200801E3D
:1024700008E0E16D09880184E06D801CE065B4F836
:102480006200401EA4F86200B4F8625020684169FE
:1024900011F4604F1AD0CEB14169090409D5006B1F
:1024A000616E0860606E001D6066B4F86A00801E90
:1024B00008E0008E616E0880606E801C6066B4F873
:1024C0006A00401EA4F86A00B4F86A60FEF7F2F8E9
:1024D000A0EB0800B84202D3781C01D004E01FB181
:1024E00055EA0600B2D17CE0204600F06EFDD4F83B
:1024F000842084F8809042F48071C4F8841084F8B9
:1025000081A086E02068416989072BD555B3032D4A
:102510000CD9E16B40290BD9E16D09680162E06DCE
:10252000001DE065B4F86200001F17E0012D0BD913
:10253000E16B49B1E16D09880184E06D801CE065C3
:10254000B4F86200801E09E0E16D097880F820107F
:10255000E06D401CE065B4F86200401EA4F8620023
:10256000B4F862502068416911F4604F2BD056B323
:102570004169090409D5006B616E0860606E001D39
:102580006066B4F86A00001F19E0416901F4C041B7
:10259000B1F5005F09D9008E616E0880606E801C05
:1025A0006066B4F86A00801E09E090F83000616E41
:1025B0000870606E401C6066B4F86A00401EA4F8A3
:1025C0006A00B4F86A60FEF775F8A0EB0800B8423C
:1025D00002D3781C02D028E7002FFCD055EA060071
:1025E00090D10022434608212046009700F04BFD81
:1025F00028B1D4F8840040F02000C4F884002046BC
:1026000000F0E3FC84F881A0D4F8840084F8809082
:1026100008B1012093E6019891E6401EB0F1807F59
:1026200010B501D3012010BD4FF0E02460610F21EF
:10263000601701F036FE0020A0610721216110BD66
:102640002DE9F04390F83C20012A42D0012280F885
:102650003C2051F80C4BDFF880804FF0000991E8E6
:10266000680051E9022723F44073B1F80CC03B43E2
:10267000CF6923F480631343026823F40063234388
:1026800023F4805343EA050323F4005343EA06038B
:1026900023F4804343EA07030C3923F470234245B3
:1026A00043EA0C4302D00D4CA2420CD18D8C23F492
:1026B0007006D1E9073446EA055121F080711943CB
:1026C00021F000732343536480F83C900020BDE860
:1026D000F0830220FBE700000000014000040140FD
:1026E000F0B590F83C20012A38D01D4E012480F826
:1026F0003C40022280F83D2002681A4D5368B242E5
:10270000D2F808C001D0AA4203D14F6823F4700365
:102710003B430F6823F070031F4357600268B242C7
:1027200010D0B2F1804F0DD00F4B9A420AD00F4B10
:102730009A4207D00E4B9A4204D0AA4202D00D4BC7
:102740009A4204D189682CF08003194391600021DA
:1027500080F83D4080F83C100846F0BD0220F0BDF6
:102760000000014000040140000400400008004057
:10277000000C00400018004010B504220446006818
:1027800001F0F8FB2068094A416C41F400414164C2
:10279000206881681140062906D0B1F5803F03D03A
:1027A000016841F001010160002010BD0700010037
:1027B00010B586B0044614216846FDF790FD0E4919
:1027C0002068884216D10D48016841F0100101606F
:1027D00000680123022200F01000059000204FF451
:1027E000806100916946CDE90120CDE903030448E9
:1027F000FDF73CFE06B010BD00000140E044025869
:102800000010025870B5044690F83C000D460128AF
:102810000ED0012684F83C60022084F83D000C2A8A
:1028200045D007DC5AB1042A1BD0082A78D12CE005
:10283000022070BD102A4ED0142A71D15DE02068AC
:1028400001F0A6FB2068816941F0080181612068E0
:10285000816921F00401816120682A69816911433D
:1028600011E0206801F0E8FB2068816941F4006113
:1028700081612068816921F4806181612068296912
:10288000826942EA012181614AE0206801F020FC6E
:102890002068C16941F00801C1612068C16921F067
:1028A0000401C16120682A69C169114311E02068EF
:1028B00001F054FC2068C16941F40061C1612068E5
:1028C000C16921F48061C16120682969C26942EA55
:1028D0000121C16124E0206801F076FC2068416D8F
:1028E00041F0080141652068416D21F00401416516
:1028F00020682A69416D114311E0206801F09AFCBB
:102900002068416D41F4006141652068416D21F40A
:102910008061416520682969426D42EA0121416573
:10292000002084F83D6084F83C0070BD10B50400C0
:1029300003D094F83D0010B107E0012010BD002045
:1029400084F83C00204600F00DF8022084F83D0099
:102950002068211D01F0ACFA012084F83D00002020
:1029600010BD000008B500680649884208D1064835
:10297000016841F001010160006800F00100009071
:1029800008BD000000000140F0440258FEE70000CE
:102990000E48032310B500220121836002734173A6
:1029A0000B490C4801F044F80B4C0521074A094833
:1029B000236898470649A268091F064890470749B7
:1029C0004FF4C8700968886310BD00001C0700241C
:1029D00008000024E401002428000024D807002473
:1029E0007FB500250095019502950395FDF7ECFE56
:1029F00001248DF800401B208DF808008DF80B5045
:102A00004FF010468DF80A4068468DF80150019647
:102A100003948DF80950FDF7A9FE16208DF80800E3
:102A20008DF80F4005218DF80B1068468DF80E408B
:102A30008DF800408DF80D508DF80A408DF801405A
:102A400001968DF80C508DF80950FDF78FFE04208B
:102A5000FDF7C8FE7FBD0000F0B587B014216846C1
:102A6000FDF73DFC2648016841F010010160016856
:102A700001F010010591016841F004010160016855
:102A800001F004010591016841F0800101600168D5
:102A900001F080010591016841F0010101600068C9
:102AA0000022184F082100F0010005903846FDF77C
:102AB000F5FD4FF42056384601223146FDF7EEFD74
:102AC00000246946012508200090CDE901543846CC
:102AD0000394FDF7CBFC0221680300900A48CDE97E
:102AE00001416946FDF7C2FC03206946CDE9006556
:102AF000CDE902403846FDF7B9FC07B0F0BD000053
:102B0000E0440258001002580008025830B587B05F
:102B100014216846FDF7E3FB3F4800243D497F222E
:102B20000594FF23E0E8021480E81C00046144617E
:102B3000C4603948FEF772FF08B1FDF784FC3648DF
:102B40000121FEF760FF43F2F22290422AD0324880
:102B50000121FEF75DFF12208DF800008DF8014085
:102B600001222D4869468DF8024003940494FFF732
:102B70002DF808B1FDF767FC01208DF8140006213F
:102B80008DF815108DF8160020228DF8172005A954
:102B900002462148FEF7B0FF002801D0FDF753FCA4
:102BA00007B030BD1D4C1E4D206800020CD501221F
:102BB00028460821FDF772FD0920FDF745FC00229B
:102BC00028460821FDF76AFD206840021CD5012235
:102BD00028460821FDF762FD0920FDF735FC00229B
:102BE00028460821FDF75AFD6320FDF72DFC012240
:102BF00028460821FDF752FD0920FDF725FC00229B
:102C000028460821FDF74AFD206840F48030206006
:102C1000C6E70000004000582C070024D0440258AA
:102C20000010025870B515484FF480050021124C71
:102C30002B010722C0E90321C0E90513C1611A0174
:102C400001624FF4C02641628162C162C0E90D2178
:102C5000C163016441648164C1640165416581654A
:102C600080E87000FFF74AF8002803D0BDE8704004
:102C7000FDF7E9BB70BD000000340140500700249F
:102C800010B596B000241C210BA812941394149430
:102C9000FDF725FB2C216846FDF721FB23480B227D
:102CA000214940F2E73380E81600C0E9033444616B
:102CB0008461FFF73BFE08B1FDF7C5FB1B4812A975
:102CC000129413941494FFF70BFD08B1FDF7BBFBAE
:102CD00060200821CDE90B0414480422CDE90D4100
:102CE0000BA90F9410941194FFF78CFD08B1FDF718
:102CF000AAFB4FF400500094019401030294CDE923
:102D0000044003940694CDE90741084869460994B4
:102D10000A94FFF795FC08B1FDF795FB0348FFF710
:102D200047FD16B010BD000000000140D807002488
:102D3000FEE77047704700002DE9F047454D044617
:102D400089464FF0000A2868C04380070AD0414EE8
:102D5000283E306820F080603060FDF7ABFC07460D
:102D6000B04608E00120BDE8F08700BFFDF7A2FCF7
:102D7000C01B022867D8D8F800000001F6D42068EC
:102D800029684FF4FE0721F47C313E0241EA00300D
:102D90002860207AA389B4F804C040022D4D2D4943
:102DA0005B1E227CACF1010C1035091DA0F50070F2
:102DB00080B2521ECCF3080C07EA034340EA0C0031
:102DC000184306EA0262104328600868626920F02E
:102DD000C000104308600A68A06922F02002024384
:102DE0000A60281D0A6822F010020A6002684FF685
:102DF000F873E4699A4342EAC40202600868B9F1D0
:102E0000000F40F010020A6011D00868B9F1010FFC
:102E100011D040F400100860D8F80000444640F09B
:102E20008060C8F80000FDF745FC05460DE0086825
:102E300040F40020EFE740F48010ECE7FDF73AFCA7
:102E4000401B022801D903208DE720680001F5D539
:102E5000504688E7284402582DE9F047454D04467E
:102E600089464FF0000A2868C04380070AD0414EC7
:102E7000283E306820F080503060FDF71BFC07468C
:102E8000B04608E00120BDE8F08700BFFDF712FC66
:102E9000C01B022867D8D8F800008000F6D420882C
:102EA00029684FF4FE0721F07C713E0241EA005090
:102EB0002860207AA389B4F804C040022D4D2D4922
:102EC0005B1E227CACF1010C1835091DA0F50070C9
:102ED00080B2521ECCF3080C07EA034340EA0C0010
:102EE000184306EA0262104328600868626920F409
:102EF0004060104308600A68A06922F4007202432F
:102F00000A60281D0A6822F480720A6002684FF67F
:102F1000F873E4699A4342EAC40202600868B9F1AE
:102F2000000F40F480720A6011D00868B9F1010FF7
:102F300011D040F080700860D8F80000444640F09E
:102F40008050C8F80000FDF7B5FB05460DE00868A5
:102F500040F48000EFE740F40000ECE7FDF7AAFB47
:102F6000401B022801D903208DE720688000F5D599
:102F7000504688E7284402580146002002E00A39FA
:102F8000401CC9B20A29FAD2000741EA1060704712
:102F900070B504460068C168490614D44FF0FF318B
:102FA000C160FDF787FB4FF47A76054607E000BF66
:102FB000FDF780FB401BB04201D9032070BD2068A3
:102FC000C0684006F4D5002070BD10B5026840F21C
:102FD0006F335169946944F00804946102689469FC
:102FE00044F0100494610268146824F00104146031
:102FF000026814699C4314610268936823F4404397
:10300000936090F88120042A0CD08A060AD5D0F863
:10301000842042F08002C0F884200268936943F063
:103020002003936190F88120032A0CD04A060AD528
:10303000D0F8842042F00402C0F88420026893692A
:1030400043F0400393618A050AD5D0F8842042F00A
:103050000102C0F884200268936943F4007393610D
:10306000C9050AD5D0F8841041F00801C0F88410D1
:1030700001688A6942F480728A610021A0F86210B6
:10308000A0F86A1010BD2DE9F041984616460D468D
:103090000746069C09E0FDF70DFBA0EB0800A042E7
:1030A00002D3601C01D00BE054B13868406935EAA6
:1030B000000007D00020B042EDD00020BDE8F08134
:1030C0000320FBE70120F6E700207047F8B504462F
:1030D0006A46002003468DF8000004F12000132109
:1030E000054613F07CF80A210646204600F006FA51
:1030F00000236A462821284613F071F8064420462A
:103100000A2100F0FBF900236A463621284613F015
:1031100066F801460B488C190B49027B806801EB6D
:10312000C00000790AB940F00800694601228DF814
:103130000000284613F04CF8001901D04FF0FF3082
:10314000F8BD00001C07002474000024F8B50446F4
:103150006A46002003468DF8000004F12000132188
:10316000054613F03CF80A210646204600F0C6F951
:1031700000236A462921284613F031F806442046E8
:103180000A2100F0BBF900236A463621284613F0D5
:1031900026F801460B488C190B49027B806801EB2D
:1031A000C00000790AB940F00800694601228DF894
:1031B0000000284613F00CF8001901D04FF0FF3042
:1031C000F8BD00001C070024740000242DE9FF4F07
:1031D00093F8038093469C7883B0DF7A4FF0000920
:1031E00093F80CC004EB0824997ACA4693F80D8032
:1031F000DE7C01EB07211F7D4FEA0C4C9A7C0CEB27
:10320000086893F815C08844DD7D3F0402EB062270
:103210001E7E987D07EB0C6C5F7E6244360400EBEB
:1032200005201D7906EB07665F7930442D0405EB18
:103230000767324D3C4403EB080613466D68009067
:10324000A5EB0B05291AA4EB080B88460A46DDE915
:10325000030100F07BFC4FF0FF35E8BB274C284F03
:10326000207B0028A06817F8300001D140F008004A
:103270008DF804000398012336212030009001AA24
:1032800012F0ADFF40BBDDE90301424600F006FC51
:1032900010BB707802228DF8080002A930788DF8F2
:1032A0000900009812F094FF08B1A94604E0B61C8A
:1032B0000AF1020ADA45ECD3207B0028A06807EB6C
:1032C000C000007901D140F008008DF8040001230E
:1032D0000098362101AA00E00BE012F080FF40B90F
:1032E00060680022009011462368039800F02EFCCD
:1032F00000B1A94607B04846BDE8F08F1C0700247E
:10330000740000242DE9F0411D46144B0024804632
:10331000069F48194FF0FF361B68984219D840465F
:1033200000F0BCFBA8B90E490020C7F30722FBB28E
:1033300006E000BF01EB400701F81020401C7B7045
:10334000A842F7D306496A0008F1200012F040FFB6
:1033500000B134462046BDE8F08100001C0700247F
:103360009C0400242DE9F05F8A460F491E468346DF
:10337000DDF8289090190025174649684FF0FF386E
:10338000884208D8002409E03A194B46514658466D
:1033900000F0A4FC08B1454602E0641CB442F3D33B
:1033A0002846BDE8F09F00001C0700242DE9FF5FC0
:1033B0001D481C4691468B46DDE90E674FF0FF3AEB
:1033C0004FF0000803688A199A4204D8416809EB53
:1033D0000700884201D9D04622E000251EE000BF48
:1033E000009809EB0502594600F058FBA0B90F49B7
:1033F000002008E0227801F8102001EB40026378F9
:10340000401CA41C5370B042F4D3009872000749CA
:10341000203012F0DDFE00B1D0466D1CBD42DFD37E
:1034200004B04046BDE8F09F1C0700241C020024A5
:103430002DE9F84F002699468A468346DDE90A7849
:10344000144635460DE04B46224651465846CDF8C7
:103450000080FFF757FF10B14FF0FF3603E0641C08
:103460006D1CBD42EFD33046BDE8F88F4FF0FF3002
:103470007047000002488068086000207047000024
:103480001C070024FEB51C46054600F007FB064657
:1034900005F120002E21054602AA12F08BFE0644FB
:1034A0002846012202A912F08CFE06446946012238
:1034B000284612F086FE06442846012201A912F091
:1034C00080FE9DF8042080199DF8001001EB022178
:1034D000216001D04FF0FF30FEBD000002480068BF
:1034E00008600020704700001C0700240248406864
:1034F00008600020704700001C07002470B50546D6
:10350000C0690E4680470446E8698047001BB04208
:10351000FAD3002070BD2DE9F74F5FEA000982B0B1
:103520007DD04FF0000B6A4601215C4609F1200076
:103530005B468DF800B0019012F051FE78214846AC
:10354000FFF7DCFF0198002301216A468DF8004057
:1035500012F045FE782105464846FFF7CFFF019857
:10356000012311216A468DF8004012F038FE002335
:103570006A46B1210544019812F031FE46190198BE
:10358000012569462A468DF8005012F021FE871960
:1035900001982C26694601228DF8006012F018FE71
:1035A00000EB07084FF02D0A0198012257466946A3
:1035B0008DF800A012F00CFE01236A46B2218DF8AE
:1035C00000508044019812F00AFE012269468044AE
:1035D00001988DF8006012F0FBFD012269468044DD
:1035E00001988DF8007012F0F3FD01236A46B321B3
:1035F0008DF800508044019812F0F1FD01226946D7
:10360000804401988DF8006012F0E2FD01226946C5
:10361000804401988DF8007012F0DAFD00E0CCE1F2
:1036200001226946804401988DF8005012F0D0FDC7
:103630000122694600EB080501988DF8006012F040
:10364000C7FD46190198012269468DF8007012F0F5
:10365000BFFD07256A4601238DF80050B4210644BA
:10366000019812F0BCFDA2216A4687190198012336
:103670008DF80010C02112F0B2FD02266946012229
:103680008DF800600744019812F0A2FD84218DF8A6
:103690000010012269460744019812F099FDC521E6
:1036A0006A4601238DF80010C1210744019812F0E9
:1036B00096FD0A216A4601238DF80010C2210744B5
:1036C000019812F08CFD01226946074401988DF89B
:1036D000004012F07DFD8A246A4601238DF80040E7
:1036E000C3210744019812F07AFD2A218DF80010B9
:1036F000012269460744019812F06AFD01236A46D7
:10370000C4218DF800400744019812F068FDEE21B5
:103710008DF80010C41901980122694612F058FD75
:103720000E216A4601238DF80010C521044401983A
:1037300012F055FD049904444FF000036A46097BDA
:1037400000297ED02021019812F049FD01233A2161
:103750000444019803AA12F042FD0123B046E0217F
:103760006A46044401988DF8006012F038FD1C216F
:103770008DF80010012269460444019812F028FDDA
:1037800001226946044401988DF8005012F020FD92
:1037900012218DF80010012269460444019812F0AC
:1037A00017FD37218DF80010012269460444019865
:1037B00012F00EFD32218DF80010012269460444FA
:1037C000019812F005FD2926694601228DF8006056
:1037D0000444019812F0FCFC01226946044401985B
:1037E0008DF800A012F0F4FC01226946044401980F
:1037F0008DF8006012F0ECFC25218DF800100122FC
:1038000069460444019812F0E3FC2B218DF8001066
:10381000012269460444019812F0DAFC39218DF83E
:103820000010071901980122694612F0D1FC01220B
:103830005C460744019869468DF800B012F0C8FC58
:1038400000E0BFE001218DF80010074401980A460E
:10385000694612F0BDFC01224FF0030B07440198AA
:1038600069468DF800B012F0B3FC07446946102099
:103870008DF800000198012212F0AAFC01236A468B
:10388000E1218DF800B00744019812F0A8FC07442C
:1038900069461D208DF800000198012212F098FC65
:1038A00001226946074401988DF8005012F090FCFF
:1038B00006218DF80010012269460744019812F094
:1038C00087FC2E25694601228DF800500744019897
:1038D00012F07EFC074469462C208DF80000019808
:1038E000012212F075FC01226946074401988DF807
:1038F000006012F06DFCC6190198012269468DF82E
:1039000000A012F065FC01226946064401988DF87A
:10391000005012F05DFC01226946064401988DF8C2
:10392000005012F055FC37218DF8001085190198D0
:103930000122694612F04CFC3F218DF80010012253
:1039400069460544019812F043FC0122694605448A
:1039500001988DF8004012F03BFC012269460544B5
:1039600001988DF8004012F033FC012269460544AD
:1039700001988DF8008012F02BFC10218DF80010BA
:10398000012269460544019812F022FC01236A468F
:1039900013218DF800400544019812F020FC4419D1
:1039A000019801236A46292112F019FC0444049964
:1039B000484600F047F9001901D04FF0FF3005B03C
:1039C000BDE8F08F2121BEE6F8B520300E46DA21A1
:1039D0006A46074612F0EEFB4FF0FF3408B120466E
:1039E000F8BD6D463846DB216A1C12F0E3FB002867
:1039F000F5D1AA1C3846DC2112F0DCFB0028EED100
:103A0000BDF801109DF8002049BA62F31F413160F2
:103A1000F8BD30B40C4603692046114630BC184747
:103A200030B40C4683692046114630BC184700006C
:103A30004FF0FF3210B5E0B10B6803604C68002B0B
:103A400044600C890481CC68C4600C6904614C69D1
:103A500044618C698461C969C16107494162074950
:103A60000162074981620749C0E90B1001D09847FC
:103A70000246104610BD0000133A0090253D00900C
:103A8000893A0090213A009030B40C4643692046B0
:103A9000114630BC18474FF0FF307047F8B5144658
:103AA000294A0D46114693680A7B497B012B07D8AA
:103AB000012909D10AB1183506E0641C1A3503E062
:103AC000012901D1E2B318346A46203000230646AA
:103AD0002A2112F084FB07466946280A8DF8000067
:103AE0000122304612F074FB074469460122304639
:103AF0008DF8005012F06CFBC5196A460023304661
:103B00002B2112F06CFB210A8DF800100544694648
:103B10000122304612F05CFB054469460122304622
:103B20008DF8004012F054FB44196A4600233046D9
:103B30002C2112F054FB001901D04FF0FF30F8BDDA
:103B4000FFE71A346D1CBFE71C0700242DE9F8437A
:103B500014463B4A0D461F461146DDF820909368F7
:103B60000A7B497B012B07D801290AD10AB11835F4
:103B700007E0641C1A3504E0012902D1002A5CD058
:103B800018346A462030002380462A2112F027FB91
:103B900006466946280A8DF800000122404612F0C8
:103BA00017FB06446946012240468DF8005012F08A
:103BB0000FFB3D4469466D1E0644280A8DF800003F
:103BC0000122404612F004FB0644694601224046A9
:103BD0008DF8005012F0FCFA85196A460023404621
:103BE0002B2112F0FCFA210A8DF8001005446946D9
:103BF0000122404612F0ECFA054469460122404693
:103C00008DF8004012F0E4FA4C446946641E054405
:103C1000200A8DF800000122404612F0D9FA05442E
:103C20006946012240468DF8004012F0D1FA401951
:103C300001D04FF0FF30BDE8F8831A346D1CA0E7C7
:103C40001C0700242DE9FC41224C50238F68A02240
:103C50000546487B80262FB1012F03D001280BD0C9
:103C600068B10EE0012801D018B10AE0C4E90032C1
:103C700007E0C4E9006204E0C4E9002301E0C4E90C
:103C8000002688680022A060087B2073487B1146CC
:103C900060736068009028462368FFF757FF217B18
:103CA00006460D480029A16800EBC100007901D14A
:103CB00040F008008DF804000123362101AA05F127
:103CC000200012F08CFA801901D04FF0FF30BDE8CF
:103CD000FC8100001C07002474000024F8B506468F
:103CE0000F481F0A4FF6FF7404EA03234FF0FF3515
:103CF0003B43ADF80030036800248B420DD9406887
:103D000090420AD93046FFF7C9FE30B9022269460F
:103D100006F1200012F05CFA00B12C462046F8BDF6
:103D20001C070024F0B4C66814460D4621462846F8
:103D3000B446F0BC1A466047704710B5FCF7C0FCAB
:103D4000BDE81040012010F04BBF0000F0B5CBB033
:103D50004C212FA8FCF7C3FA202142A8FCF7BFFA98
:103D6000BC216846FCF7BBFA0220FCF78DFD254913
:103D700025480A6822F001020A60096801680024E7
:103D800021F4404141F400410160016801F44041E7
:103D90004A9101688904FCD5FCF7A0FDFCF784FC7E
:103DA0001A4A0521022013680825C60323F01807C4
:103DB00017600123319338906022CDE92F1639AE78
:103DC00086E807003C903D903E902FA8CDE93F54F7
:103DD0004194FDF7A3FB42AA3F20032182E8330070
:103DE0000121469442A8479448944994FDF7CCF9A0
:103DF000074818940090811368462C91FCF776FDD3
:103E00004BB0F0BD2C0400581848025870440258BA
:103E100000204000214A30B5214914680020204B81
:103E200044F47004146010330A681E4D42F001021D
:103E30000A6018600A681A4B2A400A6018331C1D71
:103E4000251D174A186028322060131D28601C1D8C
:103E5000251D10602A1D1860131D20601C1D286080
:103E6000251D10601860206028600A680C4B0E4CFD
:103E700022F4802260330A60186020686FF30F001C
:103E8000B0F1005F03D209490120C1F808014FF0E9
:103E9000006002498039086030BD000088ED00E014
:103EA000004402587FEDF6EA0010005C00800051EB
:103EB0002DE9F047274B4FF0804A274D0268984282
:103EC000264E274F274C09D0504507D0A84205D091
:103ED000B04203D0B84201D0A04205D1D1F804C00D
:103EE00022F070024CEA0202DFF87CC0DFF87C802E
:103EF0009842DFF87C900FD050450DD0A8420BD0EF
:103F0000B04209D0B84207D0A04205D0604503D0E6
:103F1000404501D0484503D1CD6822F440722A4380
:103F20004D6922F080022A43026098428A68C26288
:103F30000A68826207D0A04205D0604503D04045A0
:103F400001D0484501D10969016301214161BDE802
:103F5000F08700000000014000040040000800401D
:103F6000000C0040000401400040014000440140BA
:103F70000048014010B5046A042301F01F018B4082
:103F80009C4304628A40016A1143016210BD000033
:103F90002DE9F04F026ADFF88880DFF8889022F080
:103FA0000102DFF884A0DFF884B0214F0262DFF85D
:103FB00084C0066A4268836926F002060D68B8422A
:103FC0008C6803EA0C0323F0030344EA060445EA81
:103FD000030507D0404505D0484503D0504501D0E2
:103FE000584505D1CB6824F00804234323F004048A
:103FF000B84207D0404505D0484503D0504501D0D0
:10400000584505D122F44076D1E9053233431A43AD
:1040100042608561496841630462BDE8F08F000039
:1040200000040140004001400044014000480140BC
:10403000000001408FFFFEFFF0B5026A1E4E1F4CCC
:1040400022F01002DFF878E00262056A43688269B4
:1040500025F02005D1F808C0A0420F6802EA060248
:1040600022F4407245EA0C1542EA072201D070455D
:1040700006D1CE6825F0800545EA061525F04005F5
:10408000A0420AD0704508D00E4CA04205D00E4C7C
:10409000A04202D00D4CA04207D1D1E9054623F43D
:1040A000406343EA840343EA8603436082614968CC
:1040B00081630562F0BD0000FF8FFFFE000001403C
:1040C000000401400040014000440140004801401C
:1040D000F0B5026A1C4D1D4E22F48072A8420262A5
:1040E000026A4368C76922F40072D1F808C00C68FC
:1040F00027F0730742EA0C2244EA070401D0B042D9
:1041000006D1CF6822F4006242EA072222F48062DC
:10411000A8420AD0B04208D00D4DA84205D00D4D9E
:10412000A84202D00C4DA84207D1D1E9055623F48C
:10413000405343EA051343EA06134360C4614968E8
:10414000C1630262F0BD00000000014000040140B4
:1041500000400140004401400048014070B5026A3F
:10416000144B22F4805202629842036A4268C46986
:1041700023F400538E680D6824F4E64443EA0633C2
:1041800044EA05240BD00C4DA84208D00B4DA842A0
:1041900005D00B4DA84202D00A4DA84204D14D696A
:1041A00022F4804242EA85124260C4614968016497
:1041B000036270BD00000140000401400040014066
:1041C0000044014000480140F0B5026A22F4803208
:1041D0000262134F056A4268446D25F400350E896A
:1041E000B8420B6824F0700445EA064543EA04032C
:1041F0000BD00C4CA04208D00B4CA04205D00B4C6D
:10420000A04202D00A4CA04204D14C6922F4803270
:1042100042EA042242604365496881650562F0BD57
:104220000000014000040140004001400044014002
:1042300000480140F0B5026A22F480120262134F76
:10424000046A4268436D24F400140E89B8420D6874
:1042500023F4E04344EA065443EA05230BD00C4D13
:10426000A84208D00B4DA84205D00B4DA84202D061
:104270000A4DA84204D14D6922F4003242EA852257
:10428000426043654968C1650462F0BD00000140B9
:10429000000401400040014000440140004801404A
:1042A000FEE7090700284FEA116104DB00F1E02076
:1042B00080F80014704700F00F0000F1E02080F853
:1042C000141D704702E008C8121F08C1002AFAD165
:1042D00070477047002001E001C1121F002AFBD186
:1042E000704700000A48442110B501F00CF910F0A5
:1042F0006DFC084C002304221E216060064810F06B
:10430000A1FAA06002F0E4FA0020207010BD0000C5
:104310005409002448010024896900902DE9F041E6
:1043200000251C46152A884606462DD2DFE802F0F5
:104330000B1A1C2D363A4952545D60707E80909D58
:10434000ADB2B7BCCF00304609F03AF8054640465A
:1043500009F036F805EBD57100EBD0704910A1EBF0
:104360006000A4E025800EE0304609F029F80746F9
:10437000404609F025F807EBD77100EBD0704910E3
:10438000A1EB60008EE0658075E0304609F018F81A
:104390000746404609F014F8381A6AE025809AE08A
:1043A000608068E0304609F00BF80546404609F0A9
:1043B00007F805EBD57100EBD0704910A1EB600058
:1043C00088E0304608F0FCFF0546404608F0F8FF5C
:1043D000281A7FE025806BE0304608F0F1FF0546A3
:1043E000404608F0EDFF281A61E00846258019E0F4
:1043F000304608F0E5FF0546404608F0E1FF01467B
:1044000005EBD57001EBD1714010A0EB610007E026
:10441000304608F0D5FF0546404608F0D1FF281A7F
:104420002080404608F09FFF4042B9E7258018E011
:10443000304608F0C5FF0546404608F0C1FF01467A
:1044400005EBD57001EBD1714010A0EB610007E0E6
:10445000304608F0B5FF0546404608F0B1FF281A7F
:104460002080304608F07FFF9AE7084608F0A8FF52
:1044700040426580208020883188084420807088F0
:10448000618808446080BDE8F081084608F098FF24
:1044900040420CE0084608F093FF40421AE03046E4
:1044A00008F08EFF20806EE7304608F089FF2080FC
:1044B000304608F058FF0546404608F054FF05EB2B
:1044C000D57100EBD0704910A1EB600068E7304671
:1044D00008F076FF2080304608F045FF054640464C
:1044E00008F041FF281A5BE770B5B1F90040B2F956
:1044F00000309C4200DD23460380B1F90250B2F93E
:104500000240A54200DD2C464480B1F90460B2F9B6
:104510000450AE4200DA35468580B1F90610B2F992
:104520000620914200DB1146C180AB424FF00100F2
:1045300001DC8C4200DD002070BDF8B50D46B1F9FC
:1045400000100446B0F900001646884247DBB4F973
:104550000210B5F90220914241DBB4F90410B5F91B
:10456000042091423BDCB4F90610B5F906209142D3
:1045700035DC96B3ADF80000324660886946ADF888
:104580000200284600F049F8002827D0A0883246CB
:10459000ADF8000069466088ADF80200284600F0DA
:1045A0003CF800281AD020883246ADF80000694651
:1045B000E088ADF80200284600F02FF800280DD062
:1045C000A0883246ADF800006946E088ADF80200E8
:1045D000284600F022F8002800D00120F8BD002075
:1045E000F8BDB0F90020B1F904309A4213DCB0F9FB
:1045F0000420B1F900309A420DDBB0F90220B1F984
:1046000006309A4207DCB0F90600B1F90210884280
:1046100001DB01207047002070472DE9FC41054671
:10462000B1F900000E461446B5F9001088423ADB95
:10463000B5F90470B84236DCB6F90200B5F90230BB
:10464000984230DBB5F9062090422CDC002C75DD59
:10465000781AD21A401C521C00B212B200EBD07071
:1046600002EBD27240105210904200DB104684429E
:1046700000DD0446ADF800102888002231462044B1
:10468000ADF804006888ADF8020068882044ADF8F1
:1046900006006846FFF7C1FF40B1BDF804002044A2
:1046A000ADF804003FE00020BDE8FC81E88800226E
:1046B0003146001BADF80200E888ADF806006846F8
:1046C000FFF7ABFF28B1BDF804002044ADF80400AB
:1046D00011E0A88800223146001BADF80000A88830
:1046E000ADF804006846FFF798FF50B1BDF8000030
:1046F000001BADF80000BDF80200001BADF8020081
:1047000016E068880022ADF802003146688820442F
:10471000ADF806006846FFF780FF70B1BDF80000F5
:10472000001BADF80000BDF806002044ADF80600FF
:10473000314668460FF0A6FBB6E7FFE70120B3E776
:1047400010B5B1F90040B2F900309C4200DA2346BE
:104750000380B1F90240B2F902309C4200DA2346EC
:104760004380B1F90440B2F904309C4200DD234695
:104770008380B1F90610B2F90620914200DC11469F
:10478000C18010BD2DE9FF4F87B01D468B46DDE986
:104790001476DDF85890022E55D3002F53D001F037
:1047A0008FFB804609F03CFFD8F8241000F110047C
:1047B000D0F808A009B140468847079904A85A468E
:1047C000FFF792FE00283ED0BDF81000002D218892
:1047D000A0EB010001B2ADF81010BDF81200628824
:1047E000A0EB0200ADF81200BDF814002288A0EB87
:1047F000020000B2ADF814006388BDF81620A2EBE9
:104800000302ADF8162012D098F80820D2070ED176
:10481000411A0020491C09B207E02A5C802A01D90C
:10482000FF2200E000222A54401C8842F5DBD8F821
:10483000140058B1099B04AACDE9006551462046F1
:10484000029707F05BF80BB0BDE8F08FB9F1000FED
:104850000AD001A8009604AA514680E8A002099B4C
:10486000204606F0E9FDEEE7099B04AACDE90065C4
:1048700051462046029706F079FEE4E72DE9FF4F06
:1048800087B01D469146DDE91476DDF858A0022E6A
:1048900057D3002F55D0089A014605A8FFF724FEEC
:1048A00000284ED001F00CFB804609F0B9FED8F884
:1048B000241000F11004D0F808B009B14046884730
:1048C000BDF81400002D2188A0EB010001B2ADF865
:1048D0001410BDF816006288A0EB0200ADF81600B7
:1048E000BDF818002288A0EB020000B2ADF8180055
:1048F0006388BDF81A20A2EB0302ADF81A2012D08B
:1049000098F80820D2070ED1411A0020491C09B29C
:1049100007E02A5C802A01D9FF2200E000222A5405
:10492000401C8842F5DBD8F8140068B1CDF800903F
:1049300005AA03975946CDE90165089B204610F06A
:1049400063FD0BB0BDE8F08FBAF1000F0BD002A8E9
:10495000594605AA80E8A004089B2046CDE90096A8
:1049600010F0E2FAEDE7CDF8009005AA039759465A
:10497000CDE90165089B204610F08AFBE1E70000C5
:104980002DE9FC5F054610F021F9554C00210190FE
:10499000E8686060284610F05FF86068C16BA9B1F4
:1049A0000FF070FC0FF0E4FB60684E4AD0F878110D
:1049B00011427DD0A34609F0C2FE002869D0DBF881
:1049C00004005C464169002963D108E0454AD0F8FB
:1049D0007811D2431140C0F87811BDE8FC9F09F06E
:1049E0001FFE05460FF048FDA8690028FCD160684D
:1049F000B0F90000400000F095FEA96882462868E2
:104A00008946814200D168688046606809F01CFED2
:104A10000646A34600242FE00A1992F85A214ABB01
:104A200001EBC401B1F95C50B1F95A00B1F85E2054
:104A300016FB0501101A401C00B24F004000009008
:104A400010E000BF009A08EB0701504600F00AFF93
:104A5000009A09EB0700514600F004FF6D1C2DB2CF
:104A600007EB4607DBF8040000EBC400B0F9600078
:104A7000A842E7DA641CA4B2DBF80410D1F878216C
:104A8000C2F30942A242C7D8BAF1000001D000F037
:104A9000ABFEDBF804004FF480715C465A3000F046
:104AA000C7FF6068202100F5AD7000F0C1FF00E095
:104AB00010E061680B4AD243D1F878011040C1F888
:104AC0007801019810F07CF80146606883690BB1A9
:104AD0002268984700F004FEBDE8FC5F00F004B8CF
:104AE000BC0000240000FF0310B5044C206800281F
:104AF00003D00DF031FD0020206010BD6C010024BA
:104B00000148182100F0FFBC600900242DE9F84F8E
:104B10008146DDE90A0A13B9B0F5807F7ED0BAF983
:104B200000604FF0FF350224C6F10006002B06FBA3
:104B300000F605EB262636B2A9F80060BAF9027035
:104B4000C7F1000707FB00F705EB27252DB2A9F8F1
:104B50000250BAF90070A1EB070101FB00F104EB70
:104B6000212109B2A9F80410BAF90270A2EB0702D8
:104B700002FB00F204EB222000B2A9F806007ED06E
:104B80000A2593FBF5F67042771C00EB800003EBDF
:104B9000400430B201F01EFD804638B201F01AFD2B
:104BA0005A36009030B201F015FD5A37834638B2BC
:104BB00001F010FDC4F10A01DDF800C0B9F90030C0
:104BC00001FB08F601FB0BF100FB04100CFB046673
:104BD00090FBF5F096FBF5F1B9F90220B9F904C0A4
:104BE0004FEA601B49110BFB03F401FB03F80BFBBD
:104BF0000CF001FB0CF301FB12450BFB028601FBE1
:104C000012070BFB023CB9F9062001FB124401FB21
:104C100012010BFB02880BFB023200E022E0BAF823
:104C2000000000EBA52300EBA42400EBA72500EB7C
:104C3000A12118B2BAF8023024B203EBAC2703EB7F
:104C4000A82C03EBA62603EBA22832B23BB22DB26E
:104C500009B20FFA8CF60FFA88F7844224DAA446D8
:104C600023E00CE00020491EA9F80410521EA9F808
:104C70000620A9F80000A9F80200BDE8F88FBAF8EC
:104C800000203244A9F80020BAF802202A44A9F8EA
:104C90000220BAF800201144A9F80410BAF8021052
:104CA0000844A9F80600E8E78446A94201DA8846E4
:104CB00000E0A846C44505DA844201DAA44606E0CD
:104CC000844604E0A94201DA8C4600E0AC46A9F82B
:104CD00000C0844201DDA44600E08446A94201DD13
:104CE000884600E0A846C44503DD844206DD204630
:104CF00004E0A94201DD084600E02846A9F80400C6
:104D0000964201DA304600E010469F4201DA394609
:104D100000E01946884205DA964201DA304606E09C
:104D2000104604E09F4201DA384600E01846A9F830
:104D30000200964201DD304600E010469F4201DD50
:104D4000394600E01946884203DD964206DD3246C8
:104D500004E09F4201DD3A4600E01A46A9F8062029
:104D60008BE700002DE9FE4F0446B0F90800081A51
:104D7000B4F90A50E389511BD4F800B0B3F5807F31
:104D8000D4E9093239D0A589002DA56B05FB00F0C7
:104D900041D0D4E90B7640114D4306FB00FC07FBE4
:104DA00000F1681107FB10C506FB001103EBA529F4
:104DB00002EBA120B4F904104FEA2927804606121D
:104DC000B94247DD002F45DBB4F90600B04241DDB2
:104DD000002E3FDB94F8340042073ED5820701FBEA
:104DE000067204F114001DD455004FF0020A0BEBBB
:104DF0000501524600F0D8FD22E0D4E90B5606FB2F
:104E000000F7684305FB117506FB010103EBA509DB
:104E100002EBA100CEE74D43411103EB010902EB88
:104E20006510C7E702EB42054FF0030A02220BEBC5
:104E3000050100F0B9FDE81C584410F8010CA075FC
:104E400094F83400C0071ED01948A18A008880B2A7
:104E5000814218D10020BDE8FE8F32B2236939B2F9
:104E600000258B4604F11800AA46CDE901020BF09B
:104E700053F900905946BDF80000A082DDE9010217
:104E80000BF0D8F8DBE7E07C78B1A4F83C90204642
:104E9000A4F83E80A4F84070A4F84260656484F8E9
:104EA00048A0BDE8FE4F00F005B80120D3E70000A0
:104EB000CC7B01902DE9F04F044690F83C0091B076
:104EC0004FF0FF36C1B294F83E207029D4F800901C
:104ED000D0B207DAB4F940203546012A00D50025C2
:104EE00080310DE0902916DDB4F940200125B4F998
:104EF0000430521C9A4200DB0025A1F27F11494286
:104F0000C9B27028884609DAB4F94210012900D5DF
:104F10000026803010E00025FF21F2E790280DDD0B
:104F2000B4F942100126B4F90620491C914200DB75
:104F30000026A0F27F104042C7B201E00026FF2702
:104F400094F8341060694FF0000B0890DA46A07DA9
:104F50004907CDF82CB00E9042D594F848100222A3
:104F6000606C11FB050107A8494400F029FDA088E9
:104F700094F84810626C10FB01F006FB002102223D
:104F8000494404A800F01CFDA18894F84800626C14
:104F900011FB00F310FB059006FB032102220144E4
:104FA00005A800F00DFD94F83400800760D5A288B4
:104FB00094F84800616C12FB00F210FB050310FB33
:104FC000051506FB021148440B442A1801444B44C2
:104FD00012F801BC11F8010C0B9013F8010C46E01B
:104FE000B4F84000B4F942202844236901B204F126
:104FF000180081460BF090F80790B4F84200B4F91D
:105000004010304402B2484654F8103F0BF084F888
:105010000490608E2368304402B2208E284401B28E
:1050200048460BF079F8059094F82400103C80076E
:105030001ED5B4F84000B4F942204034284401B2EF
:1050400048460AF0F7FF83466088B4F90010304400
:1050500002B248460AF0EEFF0B906088304402B27C
:1050600034F84009284401B248460AF0E3FF82467A
:1050700094F8340042464546800736D50E98C7F16D
:10508000FF0310FB08FC0B9810FB08F6C8F1FF00AB
:105090001BFB00CC1AFB0060CCF30721C0F30720F8
:1050A00011FB07F6022910FB03614FEA1121A175DC
:1050B00007D8022803D8002011B0BDE8F08F0027E0
:1050C00002E0022800D8FF270E98022800D800220C
:1050D000BBF1020F00D8FF220B98022800D8002550
:1050E000BAF1020F03D8FF2501E0FF20A075DAB165
:1050F000FF2A1BD0DDE9071008F03CFB0390BDB18F
:10510000FF2D17D0DDE904012A4608F033FB00909B
:105110003FB1FF2F10D03A460146039808F02AFB12
:105120000090BDF8000009E00798E7E70898E5E778
:105130000598ECE70498EAE7BDF80C00A08201208E
:10514000BAE72DE9F0470446B0F908000A27B4F998
:105150000C100202B4F90A3091FBF7F51802C4E909
:10516000092068426B4200EB800218B205F1010889
:1051700001EB420601F02EFA8146E84300B201F04D
:1051800029FA8246C5F15A0000B201F023FA054619
:10519000C8F15A0000B201F01DFA0146C6F10A003A
:1051A00000FB09F3684301FB06010AFB063291FB91
:1051B000F7F192FBF7F049114011C4E90B01A07C13
:1051C0000BF0A5F894F8341060F3000184F8341063
:1051D000A07C0BF08DF8024694F83400A17C0429E1
:1051E00062F3410084F8340025D0052923D0062934
:1051F00021D020F0040084F83400A0694FF4001797
:10520000E2894FF0FF0C20F0E000A588E68861F30A
:105210000400236807EB52012362B1FBF2F165F34E
:10522000942084F816C066F35F50A163A061208AC1
:10523000A082BDE8F08740F00400DCE72DE9F047EC
:10524000444E89468046318821B14348434C056825
:1052500000200EE00020BDE8F08700BF00EBC00298
:1052600005EB8202136AA34201DD5B1E1362401C40
:1052700080B28842F2D300241BE000BF04EBC400DC
:1052800005EB800778680CF09BF910B1012809D074
:105290000DE0796841450AD139891FFA89F08142C8
:1052A0000ED004E078684146FBF72BF840B1641C4F
:1052B000A4B230888442E1D3328801202C461AE01F
:1052C00004EBC4004FF47A7205EB80004369016A75
:1052D00019440162914200DD02620028BBD1EBE774
:1052E00000EBC001236A05EB81010E6A9E4200DAE1
:1052F0000C46401C80B29042F2D3606810B1204648
:105300000BF0D9FA0FF062FC002506464A464146EA
:10531000204665610BF01CFB18B16069256278B10D
:1053200015E020460BF0C7FA2021204600F080FB54
:105330002421204600F07CFB4FF00040206289E7EA
:1053400030460FF03DFC606108B9012060612046E5
:1053500081E70000CC0000245401002401000080FB
:105360000848102110B500F0CEF80BF0B7FA00286D
:1053700007D005490160054941600549816005493B
:10538000C16010BD6C0900245704019051070190C1
:105390005708019031040190002108460CF046B9ED
:1053A0007FB504000D4603D109F03CF9040025D077
:1053B0002E4EF5B10020ADF80000ADF802002046F9
:1053C00009F042F9401EADF80400204609F09CF9AE
:1053D000401E6A462946ADF8060002A8FFF784F889
:1053E00000280BD0226912B102A92046904700255F
:1053F00011E0D4F878013040C4F878017FBD00BFD7
:1054000004EBC50100225A3102A8FFF796F80028E4
:10541000F4D16D1CADB2D4F87801C0F30940A842B4
:10542000EED8D4F87801C0F30941202903D204EB67
:10543000C10002A907E03040C4F878016946C0F312
:10544000094004EBC0005A3007F060FFD4F878013F
:105450004FF4800101EBB06003214FEAB010C4F8B3
:105460007801E06A0FF0F8FA7FBD0000FFFF00FC52
:1054700070B51E4615460C46114600F0F4F8AEB164
:1054800000222946204610F0A9F8626829462046E5
:1054900010F09EF8616819B12A46204610F09EF877
:1054A000A0686560002800D1A56070BDA26829468B
:1054B000204610F093F800222946204610F088F884
:1054C000A16819B12A46204610F082F86068A560EC
:1054D0000028EAD1656070BD4FF0000100B141685D
:1054E00008467047002802D00068091D40587047E0
:1054F000002801D00068405870474FF0000100B10B
:1055000081680846704700224260C91C826021F011
:1055100003010160704770B50446006808300CF064
:10552000C7FF050013D000220146204610F056F8B0
:1055300062682946204610F04BF8616819B12A4686
:10554000204610F04BF8A068656000B9A5602846B9
:1055500070BD2DE9F04107000D462BD055B3FFF784
:10556000BBFFA84204D13846FFF7D5FF04461EE032
:10557000386808300CF09CFF04001BD029463846E0
:10558000FFF7B6FF064622460146384610F020F8DF
:1055900032462146384610F021F822462946384640
:1055A00010F01CF82A462146384610F011F8204623
:1055B000BDE8F0810020FBE770B5044600680830C4
:1055C0000CF076FF050013D00022014620460FF0B4
:1055D000FFFFA2682946204610F000F8A16819B123
:1055E0002A4620460FF0F4FF6068A56000B96560A8
:1055F000284670BD28B1416809B9806808B100200B
:105600007047012070472DE9F04116460D46B14222
:10561000074626D01EB11146FFF76AFF01E0FFF7EB
:105620006CFF0446A5421CD02946384600F01BF802
:105630002A46214638460FF0CBFF224629463846F7
:105640000FF0CCFF2A46314638460FF0C7FF3246EE
:10565000294638460FF0BCFF06B9BD60002C00D1CA
:105660007D60BDE8F08170B50B460446FFF734FF5E
:1056700098424FF000020AD119462046FFF732FF48
:10568000011E606001D0002224E0A26070BD2046AF
:10569000FFF733FF9842194620460CD1FFF728FF49
:1056A000011EA06005D02046BDE8704000220FF02A
:1056B0008FBF626070BDFFF71BFF0646194620468C
:1056C000FFF710FF05460246314620460FF080FFE7
:1056D000324629462046BDE870400FF07FBF0000EB
:1056E00070B50E4A00263046411C02EBC003C8B21A
:1056F00002289E71F8D30A4D002400BF55F83400EB
:1057000038B10CF029FF05EBC40045F83460867110
:105710008680641CE4B2102CF0D370BD800100249C
:10572000840900242DE9F041060048D0102E4FF0E6
:1057300001070AD82A49002001EBC0029279D2075A
:105740000ED0401CC0B20228F6D3264C00204FF0E9
:10575000FF3100BF04EBC0029379DB0707D018E0EC
:1057600001EBC002977151F83000BDE8F0819288DA
:10577000B2420ED305D104EBC0018F7154F8300052
:10578000F3E7002904DB04EBC1039B889A4200D2B3
:1057900041B2401CC0B21028DCD3002905DB04EB69
:1057A000C100877154F83100DFE7002504EBC50024
:1057B0008079C00705D06D1CEDB2102DF6D3002006
:1057C000D3E754F8350031460CF0F4FE0028CCD075
:1057D00004EBC5018F718E8044F83500C5E70000E9
:1057E00080010024840900240D4B0022114610B5CD
:1057F00053F83140844209D0491CC9B20229F7D379
:10580000084B002153F83140844203D103EBC1001F
:10581000827110BD491CC9B21029F3D310BD00001C
:105820008001002484090024002803D00449884210
:1058300001D10020704750F8040C40087047000068
:1058400078010024054947F6FC7205484860016864
:1058500021F0010162F35F010160704770010024D3
:10586000840A002430B500F00304034601F0030568
:10587000A54243D14EE00C78203A1C704C785C7005
:105880008C789C70CC78DC700C791C714C795C71D4
:105890008C799C71CC79DC710C7A1C724C7A5C72BC
:1058A0008C7A9C72CC7ADC720C7B1C734C7B5C73A4
:1058B0008C7B9C73CC7BDC730C7C1C744C7C5C748C
:1058C0008C7C9C74CC7CDC740C7D1C754C7D5C7574
:1058D0008C7D9C75CC7DDC750C7E1C764C7E5C765C
:1058E0008C7E9C76CC7EDC760C7F1C774C7F5C7744
:1058F0008C7F9C77CC7F2031DC772033202ABAD86C
:1059000005E000BF11F8014B521E03F8014B002ABD
:10591000F8D130BDFCB1C4F1040405E011F8015B1D
:10592000521E641E03F8015BACB1002AF6D112E0EE
:105930000C68203A1C604C685C608C689C60CC6889
:10594000DC600C691C614C695C618C699C61CC6990
:105950002031DC612033202AEAD802E010C9121F6E
:1059600010C3042AFAD804E011F8014B521E03F8C0
:10597000014B002AF8D130BD034610B505E000BF49
:1059800011F8014B521E03F8014B002AF8D110BD4B
:10599000034610B505E000BF11F8014B521E03F895
:1059A000014B002AF8D110BD034610B505E000BF39
:1059B00011F8014B521E03F8014B002AF8D110BD1B
:1059C000034610B505E000BF11F8014B521E03F865
:1059D000014B002AF8D110BD10F0030309D0C3F128
:1059E000040303E0521E5B1E00F8011B0BB1002AEA
:1059F000F8D101EB012303EB014303EB016309E061
:105A0000036043608360C360036143618361C3617A
:105A10002030203A202AF3D801E0121F08C0042ABF
:105A2000FBD802E0521E00F8011B002AFAD1704791
:105A3000002210F0030315D0C3F1040304E000BFFB
:105A4000491E5B1E00F8012B63B10029F8D1704795
:105A5000026042608260C260026142618261C26132
:105A6000203020392029F3D801E0091F04C004297F
:105A7000FBD802E0491E00F8012B0029FAD170473B
:105A8000FF2310F003020BD0C2F1040204E000BFB8
:105A9000491E521E00F8013B12B10029F8D170478F
:105AA0004FF0FF3209E0026042608260C260026132
:105AB00042618261C261203020392029F3D801E09F
:105AC000091F04C00429FBD803E000BF491E00F8E9
:105AD000013B0029FAD1704770B500240D460646F7
